{"abi":[{"type":"constructor","inputs":[{"name":"skyMateNFTAddress","type":"address","internalType":"address"},{"name":"initialOwner","type":"address","internalType":"address"}],"stateMutability":"nonpayable"},{"type":"receive","stateMutability":"payable"},{"type":"function","name":"DURATION_1_YEAR","inputs":[],"outputs":[{"name":"","type":"uint256","internalType":"uint256"}],"stateMutability":"view"},{"type":"function","name":"DURATION_2_YEARS","inputs":[],"outputs":[{"name":"","type":"uint256","internalType":"uint256"}],"stateMutability":"view"},{"type":"function","name":"DURATION_30_DAYS","inputs":[],"outputs":[{"name":"","type":"uint256","internalType":"uint256"}],"stateMutability":"view"},{"type":"function","name":"DURATION_90_DAYS","inputs":[],"outputs":[{"name":"","type":"uint256","internalType":"uint256"}],"stateMutability":"view"},{"type":"function","name":"MAXIMUM_STAKES","inputs":[],"outputs":[{"name":"","type":"uint256","internalType":"uint256"}],"stateMutability":"view"},{"type":"function","name":"RATE_1_YEAR","inputs":[],"outputs":[{"name":"","type":"uint256","internalType":"uint256"}],"stateMutability":"view"},{"type":"function","name":"RATE_2_YEARS","inputs":[],"outputs":[{"name":"","type":"uint256","internalType":"uint256"}],"stateMutability":"view"},{"type":"function","name":"RATE_30_DAYS","inputs":[],"outputs":[{"name":"","type":"uint256","internalType":"uint256"}],"stateMutability":"view"},{"type":"function","name":"RATE_90_DAYS","inputs":[],"outputs":[{"name":"","type":"uint256","internalType":"uint256"}],"stateMutability":"view"},{"type":"function","name":"activeStakes","inputs":[],"outputs":[{"name":"","type":"uint256","internalType":"uint256"}],"stateMutability":"view"},{"type":"function","name":"calculateEarnings","inputs":[{"name":"tokenId","type":"uint256","internalType":"uint256"},{"name":"yieldRate","type":"uint256","internalType":"uint256"}],"outputs":[{"name":"","type":"uint256","internalType":"uint256"}],"stateMutability":"view"},{"type":"function","name":"claimReward","inputs":[{"name":"tokenId","type":"uint256","internalType":"uint256"}],"outputs":[],"stateMutability":"nonpayable"},{"type":"function","name":"getStakedLand","inputs":[{"name":"_index","type":"uint256","internalType":"uint256"}],"outputs":[{"name":"","type":"tuple","internalType":"struct SkyMateLandStaking.Stake","components":[{"name":"owner","type":"address","internalType":"address"},{"name":"startTime","type":"uint256","internalType":"uint256"},{"name":"duration","type":"uint256","internalType":"uint256"},{"name":"lastClaimTimestamp","type":"uint256","internalType":"uint256"},{"name":"rewardRate","type":"uint256","internalType":"uint256"},{"name":"expectedRewards","type":"uint256","internalType":"uint256"},{"name":"accumulatedRewards","type":"uint256","internalType":"uint256"},{"name":"isRewardClaimed","type":"bool","internalType":"bool"}]}],"stateMutability":"view"},{"type":"function","name":"monthlyAveragePrices","inputs":[{"name":"","type":"uint256","internalType":"uint256"}],"outputs":[{"name":"","type":"uint256","internalType":"uint256"}],"stateMutability":"view"},{"type":"function","name":"owner","inputs":[],"outputs":[{"name":"","type":"address","internalType":"address"}],"stateMutability":"view"},{"type":"function","name":"renounceOwnership","inputs":[],"outputs":[],"stateMutability":"nonpayable"},{"type":"function","name":"skyMateNFT","inputs":[],"outputs":[{"name":"","type":"address","internalType":"contract ISkyMateNFT"}],"stateMutability":"view"},{"type":"function","name":"stakeLand","inputs":[{"name":"tokenId","type":"uint256","internalType":"uint256"},{"name":"duration","type":"uint256","internalType":"uint256"}],"outputs":[],"stateMutability":"nonpayable"},{"type":"function","name":"stakes","inputs":[{"name":"","type":"uint256","internalType":"uint256"}],"outputs":[{"name":"owner","type":"address","internalType":"address"},{"name":"startTime","type":"uint256","internalType":"uint256"},{"name":"duration","type":"uint256","internalType":"uint256"},{"name":"lastClaimTimestamp","type":"uint256","internalType":"uint256"},{"name":"rewardRate","type":"uint256","internalType":"uint256"},{"name":"expectedRewards","type":"uint256","internalType":"uint256"},{"name":"accumulatedRewards","type":"uint256","internalType":"uint256"},{"name":"isRewardClaimed","type":"bool","internalType":"bool"}],"stateMutability":"view"},{"type":"function","name":"totalStakes","inputs":[],"outputs":[{"name":"","type":"uint256","internalType":"uint256"}],"stateMutability":"view"},{"type":"function","name":"transferOwnership","inputs":[{"name":"newOwner","type":"address","internalType":"address"}],"outputs":[],"stateMutability":"nonpayable"},{"type":"function","name":"unstakeLand","inputs":[{"name":"tokenId","type":"uint256","internalType":"uint256"}],"outputs":[],"stateMutability":"nonpayable"},{"type":"function","name":"withdrawETH","inputs":[{"name":"receipent","type":"address","internalType":"address"}],"outputs":[],"stateMutability":"nonpayable"},{"type":"event","name":"ClaimRewards","inputs":[{"name":"user","type":"address","indexed":true,"internalType":"address"},{"name":"tokenId","type":"uint256","indexed":false,"internalType":"uint256"},{"name":"reward","type":"uint256","indexed":false,"internalType":"uint256"}],"anonymous":false},{"type":"event","name":"OwnershipTransferred","inputs":[{"name":"previousOwner","type":"address","indexed":true,"internalType":"address"},{"name":"newOwner","type":"address","indexed":true,"internalType":"address"}],"anonymous":false},{"type":"event","name":"Staked","inputs":[{"name":"user","type":"address","indexed":true,"internalType":"address"},{"name":"tokenId","type":"uint256","indexed":false,"internalType":"uint256"},{"name":"duration","type":"uint256","indexed":false,"internalType":"uint256"}],"anonymous":false},{"type":"event","name":"Unstaked","inputs":[{"name":"user","type":"address","indexed":true,"internalType":"address"},{"name":"tokenId","type":"uint256","indexed":false,"internalType":"uint256"}],"anonymous":false},{"type":"error","name":"OwnableInvalidOwner","inputs":[{"name":"owner","type":"address","internalType":"address"}]},{"type":"error","name":"OwnableUnauthorizedAccount","inputs":[{"name":"account","type":"address","internalType":"address"}]},{"type":"error","name":"SkyMateStaking_AlreadyStaked","inputs":[]},{"type":"error","name":"SkyMateStaking_InsufficentEtherForRewards","inputs":[]},{"type":"error","name":"SkyMateStaking_InvalidDuration","inputs":[]},{"type":"error","name":"SkyMateStaking_MaximumStakesReached","inputs":[]},{"type":"error","name":"SkyMateStaking_NotOwner","inputs":[]},{"type":"error","name":"SkyMateStaking_NotStaked","inputs":[]},{"type":"error","name":"SkyMateStaking_RewardAlreadyClaimed","inputs":[]},{"type":"error","name":"SkyMateStaking_StakePeriodNotEnded","inputs":[]},{"type":"error","name":"SkyMateStaking_TransactionFailed","inputs":[]},{"type":"error","name":"SkyMateStaking_UserWithThisZoneCannotStake","inputs":[]}],"bytecode":{"object":"0x60a06040523480156200001157600080fd5b50604051620015f9380380620015f98339810160408190526200003491620000f0565b806001600160a01b0381166200006457604051631e4fbdf760e01b81526000600482015260240160405180910390fd5b6200006f8162000083565b50506001600160a01b031660805262000128565b600080546001600160a01b038381166001600160a01b0319831681178455604051919092169283917f8be0079c531659141344cd1fd0a4f28419497f9722a3daafe3b4186f6b6457e09190a35050565b80516001600160a01b0381168114620000eb57600080fd5b919050565b600080604083850312156200010457600080fd5b6200010f83620000d3565b91506200011f60208401620000d3565b90509250929050565b60805161149262000167600039600081816102320152818161059b0152818161067c015281816109dc01528181610bd80152610c9801526114926000f3fe6080604052600436106101445760003560e01c806382816125116100b6578063d5a44f861161006f578063d5a44f86146103c0578063e4bbd24914610474578063e79514841461048a578063ed2f2369146104b7578063f2fde38b146104cd578063f34268ff146104ed57600080fd5b806382816125146102b75780638da5cb5b146102ce578063adecb105146102ec578063ae169a5014610303578063beed05de14610323578063bf9befb1146103aa57600080fd5b80634c73707e116101085780634c73707e146101f35780634dcc037d1461020b5780634ed61797146102205780635dfbed261461026c578063690d832014610282578063715018a6146102a257600080fd5b806306fd74c1146101505780632950e7b71461017b5780632a4cff0b146101915780633ca7b2f7146101b35780634022293f146101d357600080fd5b3661014b57005b600080fd5b34801561015c57600080fd5b506101686301e1338081565b6040519081526020015b60405180910390f35b34801561018757600080fd5b506101686104b081565b34801561019d57600080fd5b506101b16101ac3660046110f5565b610503565b005b3480156101bf57600080fd5b506101b16101ce366004611117565b610a84565b3480156101df57600080fd5b506101686101ee3660046110f5565b610c75565b3480156101ff57600080fd5b506101686303c2670081565b34801561021757600080fd5b50610168606481565b34801561022c57600080fd5b506102547f000000000000000000000000000000000000000000000000000000000000000081565b6040516001600160a01b039091168152602001610172565b34801561027857600080fd5b5061016861032081565b34801561028e57600080fd5b506101b161029d366004611145565b610d32565b3480156102ae57600080fd5b506101b1610db2565b3480156102c357600080fd5b5061016862278d0081565b3480156102da57600080fd5b506000546001600160a01b0316610254565b3480156102f857600080fd5b506101686276a70081565b34801561030f57600080fd5b506101b161031e366004611117565b610dc6565b34801561032f57600080fd5b5061034361033e366004611117565b610f69565b604051610172919081516001600160a01b031681526020808301519082015260408083015190820152606080830151908201526080808301519082015260a0828101519082015260c0808301519082015260e0918201511515918101919091526101000190565b3480156103b657600080fd5b5061016860045481565b3480156103cc57600080fd5b5061042d6103db366004611117565b6002602081905260009182526040909120805460018201549282015460038301546004840154600585015460068601546007909601546001600160a01b03909516969593949293919290919060ff1688565b604080516001600160a01b0390991689526020890197909752958701949094526060860192909252608085015260a084015260c0830152151560e082015261010001610172565b34801561048057600080fd5b5061016861012c81565b34801561049657600080fd5b506101686104a5366004611117565b60016020526000908152604090205481565b3480156104c357600080fd5b5061016860035481565b3480156104d957600080fd5b506101b16104e8366004611145565b611035565b3480156104f957600080fd5b506101686101f481565b62278d00811415801561051957506276a7008114155b801561052957506301e133808114155b801561053957506303c267008114155b156105575760405163e837e79f60e01b815260040160405180910390fd5b6064600454111561057b57604051632660625b60e21b815260040160405180910390fd5b6040516331a9108f60e11b81526004810183905233906001600160a01b037f00000000000000000000000000000000000000000000000000000000000000001690636352211e90602401602060405180830381865afa1580156105e2573d6000803e3d6000fd5b505050506040513d601f19601f820116820180604052508101906106069190611169565b6001600160a01b03161461062d576040516311a673a560e01b815260040160405180910390fd5b6000828152600260205260409020546001600160a01b03161561066357604051631873949b60e31b815260040160405180910390fd5b60405163f02dd53f60e01b8152600481018390526000907f00000000000000000000000000000000000000000000000000000000000000006001600160a01b03169063f02dd53f90602401600060405180830381865afa1580156106cb573d6000803e3d6000fd5b505050506040513d6000823e601f3d908101601f191682016040526106f39190810190611291565b905060008160c0015160008151811061070e5761070e6113b4565b016020908101516040516001600160f81b03199091169181019190915260210160408051601f1981840301815282820190915260018252600960fb1b6020928301528051918101919091209091507f321c2cb0b0673952956a3bfa56cf1ce4df0cd3371ad51a2c5524561250b01836148015906107c957506040805180820190915260018152604b60f81b6020918201528151908201207f91cb023ee03dcff3e185aa303e77c329b6b62e0a68a590039a476bc8cb48d05514155b801561081357506040805180820190915260018152604560f81b6020918201528151908201207f434b529473163ef4ed9c9341d9b7250ab9183c27e7add004c3bba38c56274e2414155b156108315760405163eaa60c9960e01b815260040160405180910390fd5b600062278d008403610846575061012c61087d565b6276a700840361085957506101f461087d565b6301e13380840361086d575061032061087d565b6303c26700840361087d57506104b05b60006108898683610c75565b9050600061089a62278d00876113e0565b6108a49083611402565b9050604051806101000160405280336001600160a01b031681526020014281526020018781526020016000815260200184815260200182815260200160008152602001600015158152506002600089815260200190815260200160002060008201518160000160006101000a8154816001600160a01b0302191690836001600160a01b031602179055506020820151816001015560408201518160020155606082015181600301556080820151816004015560a0820151816005015560c0820151816006015560e08201518160070160006101000a81548160ff021916908315150217905550905050600360008154809291906109a090611419565b9091555050600480549060006109b583611419565b90915550506040516323b872dd60e01b8152336004820152306024820152604481018890527f00000000000000000000000000000000000000000000000000000000000000006001600160a01b0316906323b872dd90606401600060405180830381600087803b158015610a2857600080fd5b505af1158015610a3c573d6000803e3d6000fd5b5050604080518a8152602081018a90523393507f1449c6dd7851abc30abf37f57715f492010519147cc2652fbc38202c18a6ee9092500160405180910390a250505050505050565b60008181526002602081815260409283902083516101008101855281546001600160a01b031680825260018301549382019390935292810154938301939093526003830154606083015260048301546080830152600583015460a0830152600683015460c083015260079092015460ff16151560e0820152903314610b1c576040516311a673a560e01b815260040160405180910390fd5b80604001518160200151610b309190611432565b421015610b505760405163c8155d8f60e01b815260040160405180910390fd5b6000828152600260208190526040822080546001600160a01b03191681556001810183905590810182905560038082018390556004820183905560058201839055600682018390556007909101805460ff19169055805491610bb183611445565b90915550506040516323b872dd60e01b8152306004820152336024820152604481018390527f00000000000000000000000000000000000000000000000000000000000000006001600160a01b0316906323b872dd90606401600060405180830381600087803b158015610c2457600080fd5b505af1158015610c38573d6000803e3d6000fd5b50506040518481523392507f0f5bb82176feb1b5e747e28471aa92156a04d9f3ab9f45f28e2d704232b93f75915060200160405180910390a25050565b60405163f02dd53f60e01b81526004810183905260009081906001600160a01b037f0000000000000000000000000000000000000000000000000000000000000000169063f02dd53f90602401600060405180830381865afa158015610cdf573d6000803e3d6000fd5b505050506040513d6000823e601f3d908101601f19168201604052610d079190810190611291565b60808101519091506201d4c0610d1d8583611402565b610d2791906113e0565b925050505b92915050565b610d3a611078565b6000816001600160a01b03164760405160006040518083038185875af1925050503d8060008114610d87576040519150601f19603f3d011682016040523d82523d6000602084013e610d8c565b606091505b5050905080610dae5760405163315e2e0160e21b815260040160405180910390fd5b5050565b610dba611078565b610dc460006110a5565b565b600081815260026020526040902080546001600160a01b03163314610dfe576040516311a673a560e01b815260040160405180910390fd5b80600201548160010154610e129190611432565b421015610e325760405163c8155d8f60e01b815260040160405180910390fd5b60048101546000610e438483610c75565b905080836006016000828254610e599190611432565b9091555050600583015460068401541115610e8757604051635cc3493960e11b815260040160405180910390fd5b80471015610ea85760405163025126a160e21b815260040160405180910390fd5b82546040516000916001600160a01b03169083908381818185875af1925050503d8060008114610ef4576040519150601f19603f3d011682016040523d82523d6000602084013e610ef9565b606091505b5050905080610f1b5760405163315e2e0160e21b815260040160405180910390fd5b835460408051878152602081018590526001600160a01b03909216917f674a8930d4166ce2352c3dc1e9ff633595db479f71f3741270a0a73a52cb7b0f910160405180910390a25050505050565b610fbc60405180610100016040528060006001600160a01b031681526020016000815260200160008152602001600081526020016000815260200160008152602001600081526020016000151581525090565b5060009081526002602081815260409283902083516101008101855281546001600160a01b0316815260018201549281019290925291820154928101929092526003810154606083015260048101546080830152600581015460a0830152600681015460c08301526007015460ff16151560e082015290565b61103d611078565b6001600160a01b03811661106c57604051631e4fbdf760e01b8152600060048201526024015b60405180910390fd5b611075816110a5565b50565b6000546001600160a01b03163314610dc45760405163118cdaa760e01b8152336004820152602401611063565b600080546001600160a01b038381166001600160a01b0319831681178455604051919092169283917f8be0079c531659141344cd1fd0a4f28419497f9722a3daafe3b4186f6b6457e09190a35050565b6000806040838503121561110857600080fd5b50508035926020909101359150565b60006020828403121561112957600080fd5b5035919050565b6001600160a01b038116811461107557600080fd5b60006020828403121561115757600080fd5b813561116281611130565b9392505050565b60006020828403121561117b57600080fd5b815161116281611130565b634e487b7160e01b600052604160045260246000fd5b604051610100810167ffffffffffffffff811182821017156111c0576111c0611186565b60405290565b604051601f8201601f1916810167ffffffffffffffff811182821017156111ef576111ef611186565b604052919050565b600082601f83011261120857600080fd5b815167ffffffffffffffff81111561122257611222611186565b6020611236601f8301601f191682016111c6565b828152858284870101111561124a57600080fd5b60005b8381101561126857858101830151828201840152820161124d565b506000928101909101919091529392505050565b8051801515811461128c57600080fd5b919050565b6000602082840312156112a357600080fd5b815167ffffffffffffffff808211156112bb57600080fd5b9083019061010082860312156112d057600080fd5b6112d861119c565b825181526020830151828111156112ee57600080fd5b6112fa878286016111f7565b60208301525060408301518281111561131257600080fd5b61131e878286016111f7565b60408301525060608301518281111561133657600080fd5b611342878286016111f7565b6060830152506080830151608082015261135e60a0840161127c565b60a082015260c08301518281111561137557600080fd5b611381878286016111f7565b60c08301525060e08301518281111561139957600080fd5b6113a5878286016111f7565b60e08301525095945050505050565b634e487b7160e01b600052603260045260246000fd5b634e487b7160e01b600052601160045260246000fd5b6000826113fd57634e487b7160e01b600052601260045260246000fd5b500490565b8082028115828204841417610d2c57610d2c6113ca565b60006001820161142b5761142b6113ca565b5060010190565b80820180821115610d2c57610d2c6113ca565b600081611454576114546113ca565b50600019019056fea2646970667358221220f43926a4973e69625dc106e58b64363bd2b0cb92311969cda194092c3974451764736f6c63430008140033","linkReferences":{}},"methodIdentifiers":{"DURATION_1_YEAR()":"06fd74c1","DURATION_2_YEARS()":"4c73707e","DURATION_30_DAYS()":"82816125","DURATION_90_DAYS()":"adecb105","MAXIMUM_STAKES()":"4dcc037d","RATE_1_YEAR()":"5dfbed26","RATE_2_YEARS()":"2950e7b7","RATE_30_DAYS()":"e4bbd249","RATE_90_DAYS()":"f34268ff","activeStakes()":"ed2f2369","calculateEarnings(uint256,uint256)":"4022293f","claimReward(uint256)":"ae169a50","getStakedLand(uint256)":"beed05de","monthlyAveragePrices(uint256)":"e7951484","owner()":"8da5cb5b","renounceOwnership()":"715018a6","skyMateNFT()":"4ed61797","stakeLand(uint256,uint256)":"2a4cff0b","stakes(uint256)":"d5a44f86","totalStakes()":"bf9befb1","transferOwnership(address)":"f2fde38b","unstakeLand(uint256)":"3ca7b2f7","withdrawETH(address)":"690d8320"},"id":42}