{"abi":[{"type":"constructor","inputs":[{"name":"skyMateNFTAddress","type":"address","internalType":"address"},{"name":"initialOwner","type":"address","internalType":"address"}],"stateMutability":"nonpayable"},{"type":"receive","stateMutability":"payable"},{"type":"function","name":"DURATION_1_YEAR","inputs":[],"outputs":[{"name":"","type":"uint256","internalType":"uint256"}],"stateMutability":"view"},{"type":"function","name":"DURATION_2_YEARS","inputs":[],"outputs":[{"name":"","type":"uint256","internalType":"uint256"}],"stateMutability":"view"},{"type":"function","name":"DURATION_30_DAYS","inputs":[],"outputs":[{"name":"","type":"uint256","internalType":"uint256"}],"stateMutability":"view"},{"type":"function","name":"DURATION_90_DAYS","inputs":[],"outputs":[{"name":"","type":"uint256","internalType":"uint256"}],"stateMutability":"view"},{"type":"function","name":"MAXIMUM_STAKES","inputs":[],"outputs":[{"name":"","type":"uint256","internalType":"uint256"}],"stateMutability":"view"},{"type":"function","name":"RATE_1_YEAR","inputs":[],"outputs":[{"name":"","type":"uint256","internalType":"uint256"}],"stateMutability":"view"},{"type":"function","name":"RATE_2_YEARS","inputs":[],"outputs":[{"name":"","type":"uint256","internalType":"uint256"}],"stateMutability":"view"},{"type":"function","name":"RATE_30_DAYS","inputs":[],"outputs":[{"name":"","type":"uint256","internalType":"uint256"}],"stateMutability":"view"},{"type":"function","name":"RATE_90_DAYS","inputs":[],"outputs":[{"name":"","type":"uint256","internalType":"uint256"}],"stateMutability":"view"},{"type":"function","name":"activeStakes","inputs":[],"outputs":[{"name":"","type":"uint256","internalType":"uint256"}],"stateMutability":"view"},{"type":"function","name":"calculateEarnings","inputs":[{"name":"tokenId","type":"uint256","internalType":"uint256"},{"name":"yieldRate","type":"uint256","internalType":"uint256"}],"outputs":[{"name":"","type":"uint256","internalType":"uint256"}],"stateMutability":"view"},{"type":"function","name":"claimReward","inputs":[{"name":"tokenId","type":"uint256","internalType":"uint256"}],"outputs":[],"stateMutability":"nonpayable"},{"type":"function","name":"getStakedLand","inputs":[{"name":"_index","type":"uint256","internalType":"uint256"}],"outputs":[{"name":"","type":"tuple","internalType":"struct SkyMateLandStaking.Stake","components":[{"name":"owner","type":"address","internalType":"address"},{"name":"startTime","type":"uint256","internalType":"uint256"},{"name":"duration","type":"uint256","internalType":"uint256"},{"name":"lastClaimTimestamp","type":"uint256","internalType":"uint256"},{"name":"rewardRate","type":"uint256","internalType":"uint256"},{"name":"expectedRewards","type":"uint256","internalType":"uint256"},{"name":"accumulatedRewards","type":"uint256","internalType":"uint256"},{"name":"isRewardClaimed","type":"bool","internalType":"bool"}]}],"stateMutability":"view"},{"type":"function","name":"getStakedNFTs","inputs":[{"name":"user","type":"address","internalType":"address"}],"outputs":[{"name":"","type":"uint256[]","internalType":"uint256[]"}],"stateMutability":"view"},{"type":"function","name":"owner","inputs":[],"outputs":[{"name":"","type":"address","internalType":"address"}],"stateMutability":"view"},{"type":"function","name":"renounceOwnership","inputs":[],"outputs":[],"stateMutability":"nonpayable"},{"type":"function","name":"skyMateNFT","inputs":[],"outputs":[{"name":"","type":"address","internalType":"contract ISkyMateNFT"}],"stateMutability":"view"},{"type":"function","name":"stakeLand","inputs":[{"name":"tokenId","type":"uint256","internalType":"uint256"},{"name":"duration","type":"uint256","internalType":"uint256"}],"outputs":[],"stateMutability":"nonpayable"},{"type":"function","name":"stakes","inputs":[{"name":"","type":"uint256","internalType":"uint256"}],"outputs":[{"name":"owner","type":"address","internalType":"address"},{"name":"startTime","type":"uint256","internalType":"uint256"},{"name":"duration","type":"uint256","internalType":"uint256"},{"name":"lastClaimTimestamp","type":"uint256","internalType":"uint256"},{"name":"rewardRate","type":"uint256","internalType":"uint256"},{"name":"expectedRewards","type":"uint256","internalType":"uint256"},{"name":"accumulatedRewards","type":"uint256","internalType":"uint256"},{"name":"isRewardClaimed","type":"bool","internalType":"bool"}],"stateMutability":"view"},{"type":"function","name":"totalStakes","inputs":[],"outputs":[{"name":"","type":"uint256","internalType":"uint256"}],"stateMutability":"view"},{"type":"function","name":"transferOwnership","inputs":[{"name":"newOwner","type":"address","internalType":"address"}],"outputs":[],"stateMutability":"nonpayable"},{"type":"function","name":"unstakeLand","inputs":[{"name":"tokenId","type":"uint256","internalType":"uint256"}],"outputs":[],"stateMutability":"nonpayable"},{"type":"function","name":"userStakes","inputs":[{"name":"","type":"address","internalType":"address"},{"name":"","type":"uint256","internalType":"uint256"}],"outputs":[{"name":"","type":"uint256","internalType":"uint256"}],"stateMutability":"view"},{"type":"function","name":"withdrawETH","inputs":[{"name":"receipent","type":"address","internalType":"address"}],"outputs":[],"stateMutability":"nonpayable"},{"type":"event","name":"ClaimRewards","inputs":[{"name":"user","type":"address","indexed":true,"internalType":"address"},{"name":"tokenId","type":"uint256","indexed":false,"internalType":"uint256"},{"name":"reward","type":"uint256","indexed":false,"internalType":"uint256"}],"anonymous":false},{"type":"event","name":"OwnershipTransferred","inputs":[{"name":"previousOwner","type":"address","indexed":true,"internalType":"address"},{"name":"newOwner","type":"address","indexed":true,"internalType":"address"}],"anonymous":false},{"type":"event","name":"Staked","inputs":[{"name":"user","type":"address","indexed":true,"internalType":"address"},{"name":"tokenId","type":"uint256","indexed":false,"internalType":"uint256"},{"name":"duration","type":"uint256","indexed":false,"internalType":"uint256"}],"anonymous":false},{"type":"event","name":"Unstaked","inputs":[{"name":"user","type":"address","indexed":true,"internalType":"address"},{"name":"tokenId","type":"uint256","indexed":false,"internalType":"uint256"}],"anonymous":false},{"type":"error","name":"OwnableInvalidOwner","inputs":[{"name":"owner","type":"address","internalType":"address"}]},{"type":"error","name":"OwnableUnauthorizedAccount","inputs":[{"name":"account","type":"address","internalType":"address"}]},{"type":"error","name":"SkyMateStaking_AlreadyStaked","inputs":[]},{"type":"error","name":"SkyMateStaking_InsufficentEtherForRewards","inputs":[]},{"type":"error","name":"SkyMateStaking_InvalidDuration","inputs":[]},{"type":"error","name":"SkyMateStaking_MaximumStakesReached","inputs":[]},{"type":"error","name":"SkyMateStaking_NotOwner","inputs":[]},{"type":"error","name":"SkyMateStaking_NotStaked","inputs":[]},{"type":"error","name":"SkyMateStaking_RewardAlreadyClaimed","inputs":[]},{"type":"error","name":"SkyMateStaking_StakePeriodNotEnded","inputs":[]},{"type":"error","name":"SkyMateStaking_TransactionFailed","inputs":[]},{"type":"error","name":"SkyMateStaking_UserWithThisZoneCannotStake","inputs":[]}],"bytecode":{"object":"0x60a06040523480156200001157600080fd5b506040516200177f3803806200177f8339810160408190526200003491620000f0565b806001600160a01b0381166200006457604051631e4fbdf760e01b81526000600482015260240160405180910390fd5b6200006f8162000083565b50506001600160a01b031660805262000128565b600080546001600160a01b038381166001600160a01b0319831681178455604051919092169283917f8be0079c531659141344cd1fd0a4f28419497f9722a3daafe3b4186f6b6457e09190a35050565b80516001600160a01b0381168114620000eb57600080fd5b919050565b600080604083850312156200010457600080fd5b6200010f83620000d3565b91506200011f60208401620000d3565b90509250929050565b608051611618620001676000396000818161023d015281816105c7015281816106a801528181610a5401528181610c4f0152610d0f01526116186000f3fe60806040526004361061014f5760003560e01c806382816125116100b6578063bf9befb11161006f578063bf9befb114610402578063d5a44f8614610418578063e4bbd249146104cd578063ed2f2369146104e3578063f2fde38b146104f9578063f34268ff1461051957600080fd5b806382816125146102ef5780638da5cb5b14610306578063adecb10514610324578063ae169a501461033b578063b5d5b5fa1461035b578063beed05de1461037b57600080fd5b80634dcc037d116101085780634dcc037d146102165780634ed617971461022b5780635dfbed2614610277578063690d83201461028d5780636f70d212146102ad578063715018a6146102da57600080fd5b806306fd74c11461015b5780632950e7b7146101865780632a4cff0b1461019c5780633ca7b2f7146101be5780634022293f146101de5780634c73707e146101fe57600080fd5b3661015657005b600080fd5b34801561016757600080fd5b506101736301e1338081565b6040519081526020015b60405180910390f35b34801561019257600080fd5b506101736104b081565b3480156101a857600080fd5b506101bc6101b736600461120b565b61052f565b005b3480156101ca57600080fd5b506101bc6101d936600461122d565b610afc565b3480156101ea57600080fd5b506101736101f936600461120b565b610cec565b34801561020a57600080fd5b506101736303c2670081565b34801561022257600080fd5b50610173606481565b34801561023757600080fd5b5061025f7f000000000000000000000000000000000000000000000000000000000000000081565b6040516001600160a01b03909116815260200161017d565b34801561028357600080fd5b5061017361032081565b34801561029957600080fd5b506101bc6102a836600461125b565b610da9565b3480156102b957600080fd5b506102cd6102c836600461125b565b610e29565b60405161017d919061127f565b3480156102e657600080fd5b506101bc610e95565b3480156102fb57600080fd5b5061017362278d0081565b34801561031257600080fd5b506000546001600160a01b031661025f565b34801561033057600080fd5b506101736276a70081565b34801561034757600080fd5b506101bc61035636600461122d565b610ea9565b34801561036757600080fd5b506101736103763660046112c3565b61104c565b34801561038757600080fd5b5061039b61039636600461122d565b61107d565b60405161017d919081516001600160a01b031681526020808301519082015260408083015190820152606080830151908201526080808301519082015260a0828101519082015260c0808301519082015260e0918201511515918101919091526101000190565b34801561040e57600080fd5b5061017360045481565b34801561042457600080fd5b5061048661043336600461122d565b6001602081905260009182526040909120805491810154600282015460038301546004840154600585015460068601546007909601546001600160a01b0390971696949593949293919290919060ff1688565b604080516001600160a01b0390991689526020890197909752958701949094526060860192909252608085015260a084015260c0830152151560e08201526101000161017d565b3480156104d957600080fd5b5061017361012c81565b3480156104ef57600080fd5b5061017360035481565b34801561050557600080fd5b506101bc61051436600461125b565b61114b565b34801561052557600080fd5b506101736101f481565b62278d00811415801561054557506276a7008114155b801561055557506301e133808114155b801561056557506303c267008114155b156105835760405163e837e79f60e01b815260040160405180910390fd5b606460045411156105a757604051632660625b60e21b815260040160405180910390fd5b6040516331a9108f60e11b81526004810183905233906001600160a01b037f00000000000000000000000000000000000000000000000000000000000000001690636352211e90602401602060405180830381865afa15801561060e573d6000803e3d6000fd5b505050506040513d601f19601f8201168201806040525081019061063291906112ef565b6001600160a01b031614610659576040516311a673a560e01b815260040160405180910390fd5b6000828152600160205260409020546001600160a01b03161561068f57604051631873949b60e31b815260040160405180910390fd5b60405163f02dd53f60e01b8152600481018390526000907f00000000000000000000000000000000000000000000000000000000000000006001600160a01b03169063f02dd53f90602401600060405180830381865afa1580156106f7573d6000803e3d6000fd5b505050506040513d6000823e601f3d908101601f1916820160405261071f9190810190611417565b905060008160c0015160008151811061073a5761073a61153a565b016020908101516040516001600160f81b03199091169181019190915260210160408051601f1981840301815282820190915260018252600960fb1b6020928301528051918101919091209091507f321c2cb0b0673952956a3bfa56cf1ce4df0cd3371ad51a2c5524561250b01836148015906107f557506040805180820190915260018152604b60f81b6020918201528151908201207f91cb023ee03dcff3e185aa303e77c329b6b62e0a68a590039a476bc8cb48d05514155b801561083f57506040805180820190915260018152604560f81b6020918201528151908201207f434b529473163ef4ed9c9341d9b7250ab9183c27e7add004c3bba38c56274e2414155b1561085d5760405163eaa60c9960e01b815260040160405180910390fd5b600062278d008403610872575061012c6108a9565b6276a700840361088557506101f46108a9565b6301e13380840361089957506103206108a9565b6303c2670084036108a957506104b05b60006108b58683610cec565b905060006108c662278d0087611566565b6108d09083611588565b9050604051806101000160405280336001600160a01b031681526020014281526020018781526020016000815260200184815260200182815260200160008152602001600015158152506001600089815260200190815260200160002060008201518160000160006101000a8154816001600160a01b0302191690836001600160a01b031602179055506020820151816001015560408201518160020155606082015181600301556080820151816004015560a0820151816005015560c0820151816006015560e08201518160070160006101000a81548160ff02191690831515021790555090505060026000336001600160a01b03166001600160a01b0316815260200190815260200160002087908060018154018082558091505060019003906000526020600020016000909190919091505560036000815480929190610a189061159f565b909155505060048054906000610a2d8361159f565b90915550506040516323b872dd60e01b8152336004820152306024820152604481018890527f00000000000000000000000000000000000000000000000000000000000000006001600160a01b0316906323b872dd90606401600060405180830381600087803b158015610aa057600080fd5b505af1158015610ab4573d6000803e3d6000fd5b5050604080518a8152602081018a90523393507f1449c6dd7851abc30abf37f57715f492010519147cc2652fbc38202c18a6ee9092500160405180910390a250505050505050565b60008181526001602081815260409283902083516101008101855281546001600160a01b031680825293820154928101929092526002810154938201939093526003830154606082015260048301546080820152600583015460a0820152600683015460c082015260079092015460ff16151560e08301523314610b93576040516311a673a560e01b815260040160405180910390fd5b80604001518160200151610ba791906115b8565b421015610bc75760405163c8155d8f60e01b815260040160405180910390fd5b6000828152600160208190526040822080546001600160a01b03191681559081018290556002810182905560038082018390556004820183905560058201839055600682018390556007909101805460ff19169055805491610c28836115cb565b90915550506040516323b872dd60e01b8152306004820152336024820152604481018390527f00000000000000000000000000000000000000000000000000000000000000006001600160a01b0316906323b872dd90606401600060405180830381600087803b158015610c9b57600080fd5b505af1158015610caf573d6000803e3d6000fd5b50506040518481523392507f0f5bb82176feb1b5e747e28471aa92156a04d9f3ab9f45f28e2d704232b93f75915060200160405180910390a25050565b60405163f02dd53f60e01b81526004810183905260009081906001600160a01b037f0000000000000000000000000000000000000000000000000000000000000000169063f02dd53f90602401600060405180830381865afa158015610d56573d6000803e3d6000fd5b505050506040513d6000823e601f3d908101601f19168201604052610d7e9190810190611417565b60808101519091506201d4c0610d948583611588565b610d9e9190611566565b925050505b92915050565b610db161118e565b6000816001600160a01b03164760405160006040518083038185875af1925050503d8060008114610dfe576040519150601f19603f3d011682016040523d82523d6000602084013e610e03565b606091505b5050905080610e255760405163315e2e0160e21b815260040160405180910390fd5b5050565b6001600160a01b038116600090815260026020908152604091829020805483518184028101840190945280845260609392830182828015610e8957602002820191906000526020600020905b815481526020019060010190808311610e75575b50505050509050919050565b610e9d61118e565b610ea760006111bb565b565b600081815260016020526040902080546001600160a01b03163314610ee1576040516311a673a560e01b815260040160405180910390fd5b80600201548160010154610ef591906115b8565b421015610f155760405163c8155d8f60e01b815260040160405180910390fd5b60048101546000610f268483610cec565b905080836006016000828254610f3c91906115b8565b9091555050600583015460068401541115610f6a57604051635cc3493960e11b815260040160405180910390fd5b80471015610f8b5760405163025126a160e21b815260040160405180910390fd5b82546040516000916001600160a01b03169083908381818185875af1925050503d8060008114610fd7576040519150601f19603f3d011682016040523d82523d6000602084013e610fdc565b606091505b5050905080610ffe5760405163315e2e0160e21b815260040160405180910390fd5b835460408051878152602081018590526001600160a01b03909216917f674a8930d4166ce2352c3dc1e9ff633595db479f71f3741270a0a73a52cb7b0f910160405180910390a25050505050565b6002602052816000526040600020818154811061106857600080fd5b90600052602060002001600091509150505481565b6110d060405180610100016040528060006001600160a01b031681526020016000815260200160008152602001600081526020016000815260200160008152602001600081526020016000151581525090565b5060009081526001602081815260409283902083516101008101855281546001600160a01b0316815292810154918301919091526002810154928201929092526003820154606082015260048201546080820152600582015460a0820152600682015460c082015260079091015460ff16151560e082015290565b61115361118e565b6001600160a01b03811661118257604051631e4fbdf760e01b8152600060048201526024015b60405180910390fd5b61118b816111bb565b50565b6000546001600160a01b03163314610ea75760405163118cdaa760e01b8152336004820152602401611179565b600080546001600160a01b038381166001600160a01b0319831681178455604051919092169283917f8be0079c531659141344cd1fd0a4f28419497f9722a3daafe3b4186f6b6457e09190a35050565b6000806040838503121561121e57600080fd5b50508035926020909101359150565b60006020828403121561123f57600080fd5b5035919050565b6001600160a01b038116811461118b57600080fd5b60006020828403121561126d57600080fd5b813561127881611246565b9392505050565b6020808252825182820181905260009190848201906040850190845b818110156112b75783518352928401929184019160010161129b565b50909695505050505050565b600080604083850312156112d657600080fd5b82356112e181611246565b946020939093013593505050565b60006020828403121561130157600080fd5b815161127881611246565b634e487b7160e01b600052604160045260246000fd5b604051610100810167ffffffffffffffff811182821017156113465761134661130c565b60405290565b604051601f8201601f1916810167ffffffffffffffff811182821017156113755761137561130c565b604052919050565b600082601f83011261138e57600080fd5b815167ffffffffffffffff8111156113a8576113a861130c565b60206113bc601f8301601f1916820161134c565b82815285828487010111156113d057600080fd5b60005b838110156113ee5785810183015182820184015282016113d3565b506000928101909101919091529392505050565b8051801515811461141257600080fd5b919050565b60006020828403121561142957600080fd5b815167ffffffffffffffff8082111561144157600080fd5b90830190610100828603121561145657600080fd5b61145e611322565b8251815260208301518281111561147457600080fd5b6114808782860161137d565b60208301525060408301518281111561149857600080fd5b6114a48782860161137d565b6040830152506060830151828111156114bc57600080fd5b6114c88782860161137d565b606083015250608083015160808201526114e460a08401611402565b60a082015260c0830151828111156114fb57600080fd5b6115078782860161137d565b60c08301525060e08301518281111561151f57600080fd5b61152b8782860161137d565b60e08301525095945050505050565b634e487b7160e01b600052603260045260246000fd5b634e487b7160e01b600052601160045260246000fd5b60008261158357634e487b7160e01b600052601260045260246000fd5b500490565b8082028115828204841417610da357610da3611550565b6000600182016115b1576115b1611550565b5060010190565b80820180821115610da357610da3611550565b6000816115da576115da611550565b50600019019056fea264697066735822122076adfc520265e8c20d475711c4fa443b0c29ef82ccbd7f336dadd81dd9dfe94b64736f6c63430008140033","linkReferences":{}},"methodIdentifiers":{"DURATION_1_YEAR()":"06fd74c1","DURATION_2_YEARS()":"4c73707e","DURATION_30_DAYS()":"82816125","DURATION_90_DAYS()":"adecb105","MAXIMUM_STAKES()":"4dcc037d","RATE_1_YEAR()":"5dfbed26","RATE_2_YEARS()":"2950e7b7","RATE_30_DAYS()":"e4bbd249","RATE_90_DAYS()":"f34268ff","activeStakes()":"ed2f2369","calculateEarnings(uint256,uint256)":"4022293f","claimReward(uint256)":"ae169a50","getStakedLand(uint256)":"beed05de","getStakedNFTs(address)":"6f70d212","owner()":"8da5cb5b","renounceOwnership()":"715018a6","skyMateNFT()":"4ed61797","stakeLand(uint256,uint256)":"2a4cff0b","stakes(uint256)":"d5a44f86","totalStakes()":"bf9befb1","transferOwnership(address)":"f2fde38b","unstakeLand(uint256)":"3ca7b2f7","userStakes(address,uint256)":"b5d5b5fa","withdrawETH(address)":"690d8320"},"id":42}