{"abi":[{"type":"constructor","inputs":[{"name":"_token","type":"address","internalType":"contract IERC20"},{"name":"_usdt","type":"address","internalType":"address"},{"name":"initialOwner","type":"address","internalType":"address"}],"stateMutability":"nonpayable"},{"type":"function","name":"SKY_MATE_PRECISION","inputs":[],"outputs":[{"name":"","type":"uint256","internalType":"uint256"}],"stateMutability":"view"},{"type":"function","name":"SkyMateCoin","inputs":[],"outputs":[{"name":"","type":"address","internalType":"contract IERC20"}],"stateMutability":"view"},{"type":"function","name":"USDT_PRICE","inputs":[],"outputs":[{"name":"","type":"uint256","internalType":"uint256"}],"stateMutability":"view"},{"type":"function","name":"buy","inputs":[{"name":"token","type":"address","internalType":"address"},{"name":"amount","type":"uint256","internalType":"uint256"}],"outputs":[],"stateMutability":"nonpayable"},{"type":"function","name":"owner","inputs":[],"outputs":[{"name":"","type":"address","internalType":"address"}],"stateMutability":"view"},{"type":"function","name":"renounceOwnership","inputs":[],"outputs":[],"stateMutability":"nonpayable"},{"type":"function","name":"tokens","inputs":[{"name":"","type":"address","internalType":"address"}],"outputs":[{"name":"","type":"address","internalType":"contract IERC20"}],"stateMutability":"view"},{"type":"function","name":"totalPurchase","inputs":[],"outputs":[{"name":"","type":"uint256","internalType":"uint256"}],"stateMutability":"view"},{"type":"function","name":"transferOwnership","inputs":[{"name":"newOwner","type":"address","internalType":"address"}],"outputs":[],"stateMutability":"nonpayable"},{"type":"function","name":"withdrawTokens","inputs":[{"name":"amount","type":"uint256","internalType":"uint256"},{"name":"token","type":"address","internalType":"address"}],"outputs":[],"stateMutability":"nonpayable"},{"type":"event","name":"OwnershipTransferred","inputs":[{"name":"previousOwner","type":"address","indexed":true,"internalType":"address"},{"name":"newOwner","type":"address","indexed":true,"internalType":"address"}],"anonymous":false},{"type":"event","name":"PurchaseToken","inputs":[{"name":"user","type":"address","indexed":true,"internalType":"address"},{"name":"amount","type":"uint256","indexed":false,"internalType":"uint256"}],"anonymous":false},{"type":"error","name":"OwnableInvalidOwner","inputs":[{"name":"owner","type":"address","internalType":"address"}]},{"type":"error","name":"OwnableUnauthorizedAccount","inputs":[{"name":"account","type":"address","internalType":"address"}]},{"type":"error","name":"SkyMatePurchaseToken_FailedTransaction","inputs":[]},{"type":"error","name":"SkyMatePurchaseToken_InsufficientFund","inputs":[]},{"type":"error","name":"SkyMatePurchaseToken_InvalidPrice","inputs":[]},{"type":"error","name":"SkyMatePurchaseToken_NotEnoughToken","inputs":[]},{"type":"error","name":"SkyMatePurchaseToken_PriceBelowMinPrice","inputs":[]},{"type":"error","name":"SkyMatePurchaseToken_PurchaseHasEnded","inputs":[]},{"type":"error","name":"SkyMatePurchaseToken_TokenNotSupported","inputs":[]},{"type":"error","name":"SkyMatePurchaseToken__StalePrice","inputs":[]}],"bytecode":{"object":"0x60a060405234801561001057600080fd5b5060405161098a38038061098a83398101604081905261002f91610104565b806001600160a01b03811661005e57604051631e4fbdf760e01b81526000600482015260240160405180910390fd5b6100678161009c565b50506001600160a01b0391821660805216600081815260026020526040902080546001600160a01b0319169091179055610151565b600080546001600160a01b038381166001600160a01b0319831681178455604051919092169283917f8be0079c531659141344cd1fd0a4f28419497f9722a3daafe3b4186f6b6457e09190a35050565b6001600160a01b038116811461010157600080fd5b50565b60008060006060848603121561011957600080fd5b8351610124816100ec565b6020850151909350610135816100ec565b6040850151909250610146816100ec565b809150509250925092565b6080516108116101796000396000818160a80152818161039f015261051201526108116000f3fe608060405234801561001057600080fd5b506004361061009e5760003560e01c80637b2581c2116100665780637b2581c21461012a5780638da5cb5b14610133578063cce7ec1314610144578063e486033914610157578063f2fde38b1461018057600080fd5b8063201402ab146100a3578063398d92bb146100e7578063513cff81146100fc57806362b984cb14610119578063715018a614610122575b600080fd5b6100ca7f000000000000000000000000000000000000000000000000000000000000000081565b6040516001600160a01b0390911681526020015b60405180910390f35b6100fa6100f53660046106c0565b610193565b005b61010b670de0b6b3a764000081565b6040519081526020016100de565b61010b61271081565b6100fa6102f5565b61010b60015481565b6000546001600160a01b03166100ca565b6100fa6101523660046106ec565b610309565b6100ca610165366004610716565b6002602052600090815260409020546001600160a01b031681565b6100fa61018e366004610716565b6105e4565b61019b610627565b6001600160a01b038082166000908152600260205260409020548291166101d557604051637d7bf8c560e11b815260040160405180910390fd5b6040516370a0823160e01b81523060048201526001600160a01b038316906370a0823190602401602060405180830381865afa158015610219573d6000803e3d6000fd5b505050506040513d601f19601f8201168201806040525081019061023d9190610738565b83111561025d576040516353b283cd60e11b815260040160405180910390fd5b816001600160a01b031663a9059cbb61027e6000546001600160a01b031690565b6040516001600160e01b031960e084901b1681526001600160a01b039091166004820152602481018690526044016020604051808303816000875af11580156102cb573d6000803e3d6000fd5b505050506040513d601f19601f820116820180604052508101906102ef9190610751565b50505050565b6102fd610627565b6103076000610654565b565b6001600160a01b0380831660009081526002602052604090205483911661034357604051637d7bf8c560e11b815260040160405180910390fd5b6127108210156103665760405163219380f560e01b815260040160405180910390fd5b600061271061037d670de0b6b3a764000085610789565b61038791906107a6565b6040516370a0823160e01b81523060048201529091507f00000000000000000000000000000000000000000000000000000000000000006001600160a01b0316906370a0823190602401602060405180830381865afa1580156103ee573d6000803e3d6000fd5b505050506040513d601f19601f820116820180604052508101906104129190610738565b8111156104325760405163887a3b4560e01b815260040160405180910390fd5b806001600082825461044491906107c8565b90915550506001600160a01b038481166000908152600260205260408082205490516323b872dd60e01b815233600482015230602482015260448101879052919216906323b872dd906064016020604051808303816000875af11580156104af573d6000803e3d6000fd5b505050506040513d601f19601f820116820180604052508101906104d39190610751565b9050806104f35760405163384fc72d60e21b815260040160405180910390fd5b60405163a9059cbb60e01b8152336004820152602481018390526000907f00000000000000000000000000000000000000000000000000000000000000006001600160a01b03169063a9059cbb906044016020604051808303816000875af1158015610563573d6000803e3d6000fd5b505050506040513d601f19601f820116820180604052508101906105879190610751565b9050806105a75760405163384fc72d60e21b815260040160405180910390fd5b60405183815233907fda1dce1c1c09e2aac3b3102b3c2c05cd59916e58e0465257bb731da30aee82809060200160405180910390a2505050505050565b6105ec610627565b6001600160a01b03811661061b57604051631e4fbdf760e01b8152600060048201526024015b60405180910390fd5b61062481610654565b50565b6000546001600160a01b031633146103075760405163118cdaa760e01b8152336004820152602401610612565b600080546001600160a01b038381166001600160a01b0319831681178455604051919092169283917f8be0079c531659141344cd1fd0a4f28419497f9722a3daafe3b4186f6b6457e09190a35050565b80356001600160a01b03811681146106bb57600080fd5b919050565b600080604083850312156106d357600080fd5b823591506106e3602084016106a4565b90509250929050565b600080604083850312156106ff57600080fd5b610708836106a4565b946020939093013593505050565b60006020828403121561072857600080fd5b610731826106a4565b9392505050565b60006020828403121561074a57600080fd5b5051919050565b60006020828403121561076357600080fd5b8151801515811461073157600080fd5b634e487b7160e01b600052601160045260246000fd5b80820281158282048414176107a0576107a0610773565b92915050565b6000826107c357634e487b7160e01b600052601260045260246000fd5b500490565b808201808211156107a0576107a061077356fea2646970667358221220acd586c500077e8453addd3fed4d390c982ed2d717e2301c747000e3f696df3664736f6c63430008140033","linkReferences":{}},"methodIdentifiers":{"SKY_MATE_PRECISION()":"513cff81","SkyMateCoin()":"201402ab","USDT_PRICE()":"62b984cb","buy(address,uint256)":"cce7ec13","owner()":"8da5cb5b","renounceOwnership()":"715018a6","tokens(address)":"e4860339","totalPurchase()":"7b2581c2","transferOwnership(address)":"f2fde38b","withdrawTokens(uint256,address)":"398d92bb"},"id":55}