{"abi":[{"type":"constructor","inputs":[{"name":"_token","type":"address","internalType":"contract IERC20"},{"name":"initialOwner","type":"address","internalType":"address"}],"stateMutability":"nonpayable"},{"type":"function","name":"calculateEarnings","inputs":[{"name":"_amount","type":"uint256","internalType":"uint256"},{"name":"yieldRate","type":"uint256","internalType":"uint256"}],"outputs":[{"name":"","type":"uint256","internalType":"uint256"}],"stateMutability":"pure"},{"type":"function","name":"claimRewards","inputs":[{"name":"stakeIndex","type":"uint256","internalType":"uint256"}],"outputs":[],"stateMutability":"nonpayable"},{"type":"function","name":"getRecentStakeIndex","inputs":[],"outputs":[{"name":"","type":"uint256","internalType":"uint256"}],"stateMutability":"view"},{"type":"function","name":"getStake","inputs":[{"name":"_index","type":"uint256","internalType":"uint256"}],"outputs":[{"name":"","type":"tuple","internalType":"struct Staking.Stake","components":[{"name":"amount","type":"uint256","internalType":"uint256"},{"name":"startTimestamp","type":"uint32","internalType":"uint32"},{"name":"period","type":"uint256","internalType":"uint256"},{"name":"annualYieldRate","type":"uint256","internalType":"uint256"},{"name":"lastClaimTimestamp","type":"uint256","internalType":"uint256"},{"name":"expectedRewardTimestamp","type":"uint256","internalType":"uint256"},{"name":"expectedRewards","type":"uint256","internalType":"uint256"},{"name":"expectedDailyRewards","type":"uint256","internalType":"uint256"},{"name":"accumulatedRewards","type":"uint256","internalType":"uint256"}]}],"stateMutability":"view"},{"type":"function","name":"getStakeCount","inputs":[],"outputs":[{"name":"","type":"uint256","internalType":"uint256"}],"stateMutability":"view"},{"type":"function","name":"hasActiveStake","inputs":[{"name":"","type":"address","internalType":"address"}],"outputs":[{"name":"","type":"bool","internalType":"bool"}],"stateMutability":"view"},{"type":"function","name":"owner","inputs":[],"outputs":[{"name":"","type":"address","internalType":"address"}],"stateMutability":"view"},{"type":"function","name":"renounceOwnership","inputs":[],"outputs":[],"stateMutability":"nonpayable"},{"type":"function","name":"stakeTokens","inputs":[{"name":"_amount","type":"uint256","internalType":"uint256"},{"name":"_period","type":"uint256","internalType":"uint256"}],"outputs":[],"stateMutability":"nonpayable"},{"type":"function","name":"stakes","inputs":[{"name":"","type":"address","internalType":"address"},{"name":"","type":"uint256","internalType":"uint256"}],"outputs":[{"name":"amount","type":"uint256","internalType":"uint256"},{"name":"startTimestamp","type":"uint32","internalType":"uint32"},{"name":"period","type":"uint256","internalType":"uint256"},{"name":"annualYieldRate","type":"uint256","internalType":"uint256"},{"name":"lastClaimTimestamp","type":"uint256","internalType":"uint256"},{"name":"expectedRewardTimestamp","type":"uint256","internalType":"uint256"},{"name":"expectedRewards","type":"uint256","internalType":"uint256"},{"name":"expectedDailyRewards","type":"uint256","internalType":"uint256"},{"name":"accumulatedRewards","type":"uint256","internalType":"uint256"}],"stateMutability":"view"},{"type":"function","name":"stakingaprs","inputs":[{"name":"","type":"uint256","internalType":"uint256"}],"outputs":[{"name":"","type":"uint256","internalType":"uint256"}],"stateMutability":"view"},{"type":"function","name":"token","inputs":[],"outputs":[{"name":"","type":"address","internalType":"contract IERC20"}],"stateMutability":"view"},{"type":"function","name":"totalRewardDistributed","inputs":[],"outputs":[{"name":"","type":"uint256","internalType":"uint256"}],"stateMutability":"view"},{"type":"function","name":"totalStakedToken","inputs":[],"outputs":[{"name":"","type":"uint256","internalType":"uint256"}],"stateMutability":"view"},{"type":"function","name":"transferOwnership","inputs":[{"name":"newOwner","type":"address","internalType":"address"}],"outputs":[],"stateMutability":"nonpayable"},{"type":"function","name":"unstake","inputs":[{"name":"stakeIndex","type":"uint256","internalType":"uint256"}],"outputs":[],"stateMutability":"nonpayable"},{"type":"event","name":"EarlyWithdrawal","inputs":[{"name":"user","type":"address","indexed":true,"internalType":"address"},{"name":"amount","type":"uint256","indexed":false,"internalType":"uint256"},{"name":"penalty","type":"uint256","indexed":false,"internalType":"uint256"}],"anonymous":false},{"type":"event","name":"OwnershipTransferred","inputs":[{"name":"previousOwner","type":"address","indexed":true,"internalType":"address"},{"name":"newOwner","type":"address","indexed":true,"internalType":"address"}],"anonymous":false},{"type":"event","name":"RewardsClaimed","inputs":[{"name":"user","type":"address","indexed":true,"internalType":"address"},{"name":"amount","type":"uint256","indexed":false,"internalType":"uint256"}],"anonymous":false},{"type":"event","name":"StakeWithdrawn","inputs":[{"name":"user","type":"address","indexed":true,"internalType":"address"},{"name":"amount","type":"uint256","indexed":false,"internalType":"uint256"}],"anonymous":false},{"type":"event","name":"TokensBurned","inputs":[{"name":"user","type":"address","indexed":true,"internalType":"address"},{"name":"amount","type":"uint256","indexed":false,"internalType":"uint256"}],"anonymous":false},{"type":"event","name":"TokensStaked","inputs":[{"name":"user","type":"address","indexed":true,"internalType":"address"},{"name":"amount","type":"uint256","indexed":false,"internalType":"uint256"},{"name":"period","type":"uint256","indexed":false,"internalType":"uint256"},{"name":"annualYieldRate","type":"uint256","indexed":false,"internalType":"uint256"}],"anonymous":false},{"type":"error","name":"OwnableInvalidOwner","inputs":[{"name":"owner","type":"address","internalType":"address"}]},{"type":"error","name":"OwnableUnauthorizedAccount","inputs":[{"name":"account","type":"address","internalType":"address"}]},{"type":"error","name":"Staking_AmountCannotBeZero","inputs":[]},{"type":"error","name":"Staking_FailedTransaction","inputs":[]},{"type":"error","name":"Staking_InvalidStakeIndex","inputs":[]},{"type":"error","name":"Staking_RewardsCompleted","inputs":[]},{"type":"error","name":"Staking_StakingNotOver","inputs":[]},{"type":"error","name":"Staking_StakingNotWithdrawable","inputs":[]}],"bytecode":{"object":"0x608060405234801561001057600080fd5b5060405161118038038061118083398101604081905261002f91610191565b806001600160a01b03811661005e57604051631e4fbdf760e01b81526000600482015260240160405180910390fd5b61006781610129565b5050600180546001600160a01b0319166001600160a01b0392909216919091179055600560205260037f3fb1f8b5b572f385df2ff517fa4200d6781fd017f742a2f073e874e0dca7758b5560077faadf04b4a1bf84e121ab68e5c1cffab5aeb9be1a024ff9944a2a0bc16748660955600a7f5464d34515fb195718451914a9b5e2c4ac04dce5fd392ea5e3f190355ea2fb7e556102d060005260147fdf327ea759f05059d2fce626670e5573fc2d178377adc5719a799a3572f1e08a556101cb565b600080546001600160a01b038381166001600160a01b0319831681178455604051919092169283917f8be0079c531659141344cd1fd0a4f28419497f9722a3daafe3b4186f6b6457e09190a35050565b6001600160a01b038116811461018e57600080fd5b50565b600080604083850312156101a457600080fd5b82516101af81610179565b60208401519092506101c081610179565b809150509250929050565b610fa6806101da6000396000f3fe608060405234801561001057600080fd5b50600436106101005760003560e01c806369486d2911610097578063cb6d8ee611610066578063cb6d8ee614610264578063ce325bf81461026d578063f2fde38b146102f3578063fc0c546a1461030657600080fd5b806369486d29146101fc578063715018a61461022f5780638da5cb5b14610237578063bbfd4e0c1461025c57600080fd5b8063370fc939116100d3578063370fc9391461015a5780633b7b61881461017a5780634022293f1461018d578063584b62a1146101a057600080fd5b80630962ef79146101055780632e17de781461011a5780632e4ab48a1461012d57806330188ee814610151575b600080fd5b610118610113366004610e20565b610319565b005b610118610128366004610e20565b6105db565b336000908152600460205260409020545b6040519081526020015b60405180910390f35b61013e60035481565b61013e610168366004610e20565b60056020526000908152604090205481565b610118610188366004610e39565b6107b5565b61013e61019b366004610e39565b610b4d565b6101b36101ae366004610e77565b610b6e565b60408051998a5263ffffffff90981660208a0152968801959095526060870193909352608086019190915260a085015260c084015260e083015261010082015261012001610148565b61021f61020a366004610ea1565b60066020526000908152604090205460ff1681565b6040519015158152602001610148565b610118610bdd565b6000546001600160a01b03165b6040516001600160a01b039091168152602001610148565b61013e610bf1565b61013e60025481565b61028061027b366004610e20565b610c6e565b60405161014891906000610120820190508251825263ffffffff602084015116602083015260408301516040830152606083015160608301526080830151608083015260a083015160a083015260c083015160c083015260e083015160e083015261010080840151818401525092915050565b610118610301366004610ea1565b610d65565b600154610244906001600160a01b031681565b336000908152600460205260409020548110610348576040516325f2954760e01b815260040160405180910390fd5b33600090815260046020526040812080548390811061036957610369610ebc565b600091825260209091206009909102016008810154600482015491925042916103959062278d00610ee8565b8210156103b557604051634707771960e11b815260040160405180910390fd5b6000620151808460040154846103cb9190610efb565b6103d59190610f0e565b905060008185600701546103e99190610f30565b9050808560080160008282546103ff9190610ee8565b9250508190555080600360008282546104189190610ee8565b9091555050426004860155600685015460088601546000911015610505578386600601546104469190610efb565b905080600003610469576040516350a5ffe560e11b815260040160405180910390fd5b60015460405163a9059cbb60e01b8152336004820152602481018390526000916001600160a01b03169063a9059cbb906044016020604051808303816000875af11580156104bb573d6000803e3d6000fd5b505050506040513d601f19601f820116820180604052508101906104df9190610f47565b9050806104ff57604051632f8293c360e11b815260040160405180910390fd5b5061059d565b60015460405163a9059cbb60e01b8152336004820152602481018490526000916001600160a01b03169063a9059cbb906044016020604051808303816000875af1158015610557573d6000803e3d6000fd5b505050506040513d601f19601f8201168201806040525081019061057b9190610f47565b90508061059b57604051632f8293c360e11b815260040160405180910390fd5b505b60405182815233907ffc30cddea38e2bf4d6ea7d3f9ed3b6ad7f176419f4963bd81318067a4aee73fe9060200160405180910390a250505050505050565b33600090815260046020526040902054811061060a576040516325f2954760e01b815260040160405180910390fd5b33600090815260046020526040812080548390811061062b5761062b610ebc565b9060005260206000209060090201905060004290506201518063ffffffff1682600201546106599190610f30565b600183015461066e919063ffffffff16610ee8565b81101561068e57604051634707771960e11b815260040160405180910390fd5b6000826008015483600601546106a49190610efb565b835490915060006106b58383610ee8565b9050828560080160008282546106cb9190610ee8565b9250508190555082600360008282546106e49190610ee8565b9250508190555081600260008282546106fd9190610efb565b909155505033600081815260066020526040808220805460ff19169055818855600154905163a9059cbb60e01b815260048101939093526024830184905290916001600160a01b039091169063a9059cbb906044016020604051808303816000875af1158015610771573d6000803e3d6000fd5b505050506040513d601f19601f820116820180604052508101906107959190610f47565b90508061059d57604051632f8293c360e11b815260040160405180910390fd5b816000036107d657604051630834b9b960e21b815260040160405180910390fd5b80601e14806107e5575080605a145b806107f1575080610168145b806107fd5750806102d0145b6108475760405162461bcd60e51b8152602060048201526016602482015275125b9d985b1a59081cdd185ada5b99c81c195c9a5bd960521b60448201526064015b60405180910390fd5b3360009081526006602052604090205460ff16156108a75760405162461bcd60e51b815260206004820181905260248201527f596f7520616c7265616479206861766520616e20616374697665207374616b65604482015260640161083e565b336000908152600660205260408120805460ff19166001179055600280548492906108d3908490610ee8565b90915550506000818152600560205260408120546108f2908490610b4d565b905060006109008383610f0e565b905060006109116201518085610f30565b61091b9042610ee8565b905060046000336001600160a01b03166001600160a01b031681526020019081526020016000206040518061012001604052808781526020014263ffffffff1681526020018681526020016005600088815260200190815260200160002054815260200160008152602001838152602001858152602001848152602001600081525090806001815401808255809150506001900390600052602060002090600902016000909190919091506000820151816000015560208201518160010160006101000a81548163ffffffff021916908363ffffffff16021790555060408201518160020155606082015181600301556080820151816004015560a0820151816005015560c0820151816006015560e0820151816007015561010082015181600801555050336001600160a01b03167f0fc5b1bac0416800b42a669229a346b6e5a15db3896339dbdc5fa376e1e4570a86866005600089815260200190815260200160002054604051610aa1939291909283526020830191909152604082015260600190565b60405180910390a26001546040516323b872dd60e01b8152336004820152306024820152604481018790526000916001600160a01b0316906323b872dd906064016020604051808303816000875af1158015610b01573d6000803e3d6000fd5b505050506040513d601f19601f82011682018060405250810190610b259190610f47565b905080610b4557604051632f8293c360e11b815260040160405180910390fd5b505050505050565b60006064610b5b8385610f30565b610b659190610f0e565b90505b92915050565b60046020528160005260406000208181548110610b8a57600080fd5b600091825260209091206009909102018054600182015460028301546003840154600485015460058601546006870154600788015460089098015496995063ffffffff9095169750929591949093919089565b610be5610da3565b610bef6000610dd0565b565b33600090815260046020526040812054610c4d5760405162461bcd60e51b815260206004820152601c60248201527f4e6f207374616b657320666f756e6420666f7220746865207573657200000000604482015260640161083e565b33600090815260046020526040902054610c6990600190610efb565b905090565b610cc360405180610120016040528060008152602001600063ffffffff168152602001600081526020016000815260200160008152602001600081526020016000815260200160008152602001600081525090565b336000908152600460205260409020805483908110610ce457610ce4610ebc565b60009182526020918290206040805161012081018252600990930290910180548352600181015463ffffffff16938301939093526002830154908201526003820154606082015260048201546080820152600582015460a0820152600682015460c0820152600782015460e082015260089091015461010082015292915050565b610d6d610da3565b6001600160a01b038116610d9757604051631e4fbdf760e01b81526000600482015260240161083e565b610da081610dd0565b50565b6000546001600160a01b03163314610bef5760405163118cdaa760e01b815233600482015260240161083e565b600080546001600160a01b038381166001600160a01b0319831681178455604051919092169283917f8be0079c531659141344cd1fd0a4f28419497f9722a3daafe3b4186f6b6457e09190a35050565b600060208284031215610e3257600080fd5b5035919050565b60008060408385031215610e4c57600080fd5b50508035926020909101359150565b80356001600160a01b0381168114610e7257600080fd5b919050565b60008060408385031215610e8a57600080fd5b610e9383610e5b565b946020939093013593505050565b600060208284031215610eb357600080fd5b610b6582610e5b565b634e487b7160e01b600052603260045260246000fd5b634e487b7160e01b600052601160045260246000fd5b80820180821115610b6857610b68610ed2565b81810381811115610b6857610b68610ed2565b600082610f2b57634e487b7160e01b600052601260045260246000fd5b500490565b8082028115828204841417610b6857610b68610ed2565b600060208284031215610f5957600080fd5b81518015158114610f6957600080fd5b939250505056fea2646970667358221220e20b814d7c714fed1f53776596d8a20f5c1afbb173aa06b3de9fc75ceb3ffcb164736f6c63430008140033","linkReferences":{}},"methodIdentifiers":{"calculateEarnings(uint256,uint256)":"4022293f","claimRewards(uint256)":"0962ef79","getRecentStakeIndex()":"bbfd4e0c","getStake(uint256)":"ce325bf8","getStakeCount()":"2e4ab48a","hasActiveStake(address)":"69486d29","owner()":"8da5cb5b","renounceOwnership()":"715018a6","stakeTokens(uint256,uint256)":"3b7b6188","stakes(address,uint256)":"584b62a1","stakingaprs(uint256)":"370fc939","token()":"fc0c546a","totalRewardDistributed()":"30188ee8","totalStakedToken()":"cb6d8ee6","transferOwnership(address)":"f2fde38b","unstake(uint256)":"2e17de78"},"id":56}