{"abi":[{"type":"constructor","inputs":[{"name":"initialOwner","type":"address","internalType":"address"}],"stateMutability":"nonpayable"},{"type":"function","name":"allowance","inputs":[{"name":"owner","type":"address","internalType":"address"},{"name":"spender","type":"address","internalType":"address"}],"outputs":[{"name":"","type":"uint256","internalType":"uint256"}],"stateMutability":"view"},{"type":"function","name":"approve","inputs":[{"name":"spender","type":"address","internalType":"address"},{"name":"value","type":"uint256","internalType":"uint256"}],"outputs":[{"name":"","type":"bool","internalType":"bool"}],"stateMutability":"nonpayable"},{"type":"function","name":"balanceOf","inputs":[{"name":"account","type":"address","internalType":"address"}],"outputs":[{"name":"","type":"uint256","internalType":"uint256"}],"stateMutability":"view"},{"type":"function","name":"burn","inputs":[{"name":"_account","type":"address","internalType":"address"},{"name":"_amount","type":"uint256","internalType":"uint256"}],"outputs":[],"stateMutability":"nonpayable"},{"type":"function","name":"burnForAllocation","inputs":[{"name":"_name","type":"string","internalType":"string"},{"name":"_amount","type":"uint256","internalType":"uint256"}],"outputs":[],"stateMutability":"nonpayable"},{"type":"function","name":"changeAllocationAdmin","inputs":[{"name":"_name","type":"string","internalType":"string"},{"name":"_admin","type":"address","internalType":"address"}],"outputs":[],"stateMutability":"nonpayable"},{"type":"function","name":"decimals","inputs":[],"outputs":[{"name":"","type":"uint8","internalType":"uint8"}],"stateMutability":"view"},{"type":"function","name":"getVestingSchedule","inputs":[{"name":"_name","type":"string","internalType":"string"}],"outputs":[{"name":"","type":"tuple","internalType":"struct SkyMateCoin.VestingSchedule","components":[{"name":"name","type":"string","internalType":"string"},{"name":"admin","type":"address","internalType":"address"},{"name":"maxAmount","type":"uint256","internalType":"uint256"},{"name":"totalMinted","type":"uint256","internalType":"uint256"},{"name":"lastAllocationTime","type":"uint256","internalType":"uint256"}]}],"stateMutability":"view"},{"type":"function","name":"mint","inputs":[{"name":"_account","type":"address","internalType":"address"},{"name":"_amount","type":"uint256","internalType":"uint256"}],"outputs":[],"stateMutability":"nonpayable"},{"type":"function","name":"mintForAllocation","inputs":[{"name":"_name","type":"string","internalType":"string"},{"name":"_amount","type":"uint256","internalType":"uint256"}],"outputs":[],"stateMutability":"nonpayable"},{"type":"function","name":"name","inputs":[],"outputs":[{"name":"","type":"string","internalType":"string"}],"stateMutability":"view"},{"type":"function","name":"owner","inputs":[],"outputs":[{"name":"","type":"address","internalType":"address"}],"stateMutability":"view"},{"type":"function","name":"renounceOwnership","inputs":[],"outputs":[],"stateMutability":"nonpayable"},{"type":"function","name":"symbol","inputs":[],"outputs":[{"name":"","type":"string","internalType":"string"}],"stateMutability":"view"},{"type":"function","name":"totalSupply","inputs":[],"outputs":[{"name":"","type":"uint256","internalType":"uint256"}],"stateMutability":"view"},{"type":"function","name":"transfer","inputs":[{"name":"to","type":"address","internalType":"address"},{"name":"value","type":"uint256","internalType":"uint256"}],"outputs":[{"name":"","type":"bool","internalType":"bool"}],"stateMutability":"nonpayable"},{"type":"function","name":"transferFrom","inputs":[{"name":"from","type":"address","internalType":"address"},{"name":"to","type":"address","internalType":"address"},{"name":"value","type":"uint256","internalType":"uint256"}],"outputs":[{"name":"","type":"bool","internalType":"bool"}],"stateMutability":"nonpayable"},{"type":"function","name":"transferOwnership","inputs":[{"name":"newOwner","type":"address","internalType":"address"}],"outputs":[],"stateMutability":"nonpayable"},{"type":"event","name":"AllocationBurn","inputs":[{"name":"name","type":"string","indexed":false,"internalType":"string"},{"name":"amount","type":"uint256","indexed":false,"internalType":"uint256"}],"anonymous":false},{"type":"event","name":"AllocationMinted","inputs":[{"name":"name","type":"string","indexed":false,"internalType":"string"},{"name":"amount","type":"uint256","indexed":false,"internalType":"uint256"}],"anonymous":false},{"type":"event","name":"Approval","inputs":[{"name":"owner","type":"address","indexed":true,"internalType":"address"},{"name":"spender","type":"address","indexed":true,"internalType":"address"},{"name":"value","type":"uint256","indexed":false,"internalType":"uint256"}],"anonymous":false},{"type":"event","name":"OwnershipTransferred","inputs":[{"name":"previousOwner","type":"address","indexed":true,"internalType":"address"},{"name":"newOwner","type":"address","indexed":true,"internalType":"address"}],"anonymous":false},{"type":"event","name":"Transfer","inputs":[{"name":"from","type":"address","indexed":true,"internalType":"address"},{"name":"to","type":"address","indexed":true,"internalType":"address"},{"name":"value","type":"uint256","indexed":false,"internalType":"uint256"}],"anonymous":false},{"type":"error","name":"ERC20InsufficientAllowance","inputs":[{"name":"spender","type":"address","internalType":"address"},{"name":"allowance","type":"uint256","internalType":"uint256"},{"name":"needed","type":"uint256","internalType":"uint256"}]},{"type":"error","name":"ERC20InsufficientBalance","inputs":[{"name":"sender","type":"address","internalType":"address"},{"name":"balance","type":"uint256","internalType":"uint256"},{"name":"needed","type":"uint256","internalType":"uint256"}]},{"type":"error","name":"ERC20InvalidApprover","inputs":[{"name":"approver","type":"address","internalType":"address"}]},{"type":"error","name":"ERC20InvalidReceiver","inputs":[{"name":"receiver","type":"address","internalType":"address"}]},{"type":"error","name":"ERC20InvalidSender","inputs":[{"name":"sender","type":"address","internalType":"address"}]},{"type":"error","name":"ERC20InvalidSpender","inputs":[{"name":"spender","type":"address","internalType":"address"}]},{"type":"error","name":"OwnableInvalidOwner","inputs":[{"name":"owner","type":"address","internalType":"address"}]},{"type":"error","name":"OwnableUnauthorizedAccount","inputs":[{"name":"account","type":"address","internalType":"address"}]},{"type":"error","name":"SkyMateCoin_AllocationFundCompleted","inputs":[]},{"type":"error","name":"SkyMateCoin_AllocationPeriodNotYetReady","inputs":[]},{"type":"error","name":"SkyMateCoin_ZeroAddress","inputs":[]}],"bytecode":{"object":"0x6102206040527fdd42062507cfcf9ade4e6b18832ddd7d69f552ec7372210bf415c84ca60554916080527f0c5d7af96d3ef47dd524873d430b73a69824a10120641592b74979243d03d3e860a0527f7c83ea77bfeff0cbb2f4689ad4ab05ad6d739c9d95fa63011673afa15ea5484360c0527fb38d7810f84033562505c76a22f1694b377430f983dbfb788e4336d36cd52fc060e0527f31b707df5fa7a5dd0a9c571d1872ea926d970a0d808c30afaf2259d7a2807541610100527f8f5d825fbb3e9141b62b618d4c2a3287ba17f74989e1b9738be30deedbaa88fd610120527fc9ddee10cec72e014f7aedc6010552b7f7fab14f98a89deaabbd8b961a8e6c34610140527fa3e400229e80e9155cfb81d7836d0dfda25e67e62d0ab6eecd5fc538b99c4959610160527fc7c99932a72ac4bc85548c14ba8587069bc7689b932fe1fff9190646ef6f7ffc610180527f7b06df5c1d399fb2154668a8b630f85ea5035a540a4247c18ee4bb262ffbbcf56101a0527f59fac00dcf231e5a6157e7a0e3c105db10eed86ffbbb9534f85b15155e3b9b566101c0527ff7b71f59b0b8dd35c042dffd24219a39a36541dd7a3134fee61d706d59b609c06101e05262ed4e0061020052348015620001d257600080fd5b5060405162001e5838038062001e58833981016040819052620001f59162000c61565b806040518060400160405280600d81526020016c29a5ac9026a0aa229021a7a4a760991b81525060405180604001604052806003815260200162534d4360e81b815250816003908162000249919062000d38565b50600462000258828262000d38565b5050506001600160a01b0381166200028a57604051631e4fbdf760e01b81526000600482015260240160405180910390fd5b620002958162000c0f565b506040805160e081018252600b60a082019081526a21b4b931bab630ba34b7b760a91b60c083015281526001600160a01b038316602082015269d3c21bcecceda100000081830152600060608201819052608082015290516006906200030c906a21b4b931bab630ba34b7b760a91b8152600b0190565b908152604051908190036020019020815181906200032b908262000d38565b506020828101516001830180546001600160a01b0319166001600160a01b0392831617905560408085015160028501556060808601516003860155608095860151600490950194909455805160e081018252601160a0820181815270141c9a5d985d1948141b1858d95b595b9d607a1b60c08401819052908352938816948201949094526a0422ca8b0a00a4250000008183015260009481018590529485019390935291519182526006910190815260405190819003602001902081518190620003f6908262000d38565b506020828101516001830180546001600160a01b0319166001600160a01b0392831617905560408085015160028501556060808601516003860155608095860151600490950194909455805160e081018252600f60a082018181526e5075626c6963204f66666572696e6760881b60c08401819052908352938816948201949094526a0422ca8b0a00a4250000008183015260009481018590529485019390935291519182526006910190815260405190819003602001902081518190620004bf908262000d38565b506020828101516001830180546001600160a01b0319166001600160a01b0392831617905560408085015160028501556060808601516003860155608095860151600490950194909455805160e081018252601260a08201818152714d61726b6574696e6720457870656e73657360701b60c08401819052908352938816948201949094526a034f086f3b33b68400000081830152600094810185905294850193909352915191825260069101908152604051908190036020019020815181906200058b908262000d38565b506020828101516001830180546001600160a01b0319166001600160a01b0392831617905560408085015160028501556060808601516003860155608095860151600495860155815160e08101835260a08101868152635465616d60e01b60c08301819052908252938816948101949094526a084595161401484a00000084830152600090840181905294830194909452925192835291600691019081526040519081900360200190208151819062000645908262000d38565b506020828101516001830180546001600160a01b0319166001600160a01b0392831617905560408085015160028501556060808601516003860155608095860151600490950194909455805160e081018252600960a0820181815268436f6d6d756e69747960b81b60c08401819052908352938816948201949094526a108b2a2c28029094000000818301526000948101859052948501939093529151918252600691019081526040519081900360200190208151819062000708908262000d38565b506020828101516001830180546001600160a01b0319166001600160a01b0392831617905560408085015160028501556060808601516003860155608095860151600490950194909455805160e081018252600d60a082018181526c13595d1850da5d1e48119d5b99609a1b60c08401819052908352938816948201949094526a108b2a2c280290940000008183015260009481018590529485019390935291519182526006910190815260405190819003602001902081518190620007cf908262000d38565b506020828101516001830180546001600160a01b0319166001600160a01b0392831617905560408085015160028501556060808601516003860155608095860151600490950194909455805160e081018252600f60a082018181526e5374616b696e67205265776172647360881b60c08401819052908352938816948201949094526a0422ca8b0a00a425000000818301526000948101859052948501939093529151918252600691019081526040519081900360200190208151819062000898908262000d38565b506020828101516001830180546001600160a01b039283166001600160a01b031990911617905560408085015160028501556060808601516003860155608095860151600490950194909455805160e081018252600660a0820181815265446f6e61746560d01b60c08401528252928716938101939093526a01a784379d99db42000000838201526000938301849052938201929092529151620009489065446f6e61746560d01b815260060190565b9081526040519081900360200190208151819062000967908262000d38565b506020828101516001830180546001600160a01b0319166001600160a01b0392831617905560408085015160028501556060808601516003860155608095860151600490950194909455805160e081018252600a60a082018181526910dbdb9cdd5b1d185b9d60b21b60c08401819052908352938816948201949094526a027b46536c66c8e3000000818301526000948101859052948501939093529151918252600691019081526040519081900360200190208151819062000a2b908262000d38565b506020828101516001830180546001600160a01b0319166001600160a01b0392831617905560408085015160028501556060808601516003860155608095860151600490950194909455805160e081018252601260a08201818152714f6666696369616c204d61726b6574696e6760701b60c08401819052908352938816948201949094526a0422ca8b0a00a425000000818301526000948101859052948501939093529151918252600691019081526040519081900360200190208151819062000af7908262000d38565b506020828101516001830180546001600160a01b0319166001600160a01b0392831617905560408085015160028501556060808601516003860155608095860151600490950194909455805160e081018252601060a082018181526f436f6d70616e7920526573657276657360801b60c08401819052908352938816948201949094526a108b2a2c28029094000000818301526000948101859052948501939093529151918252600691019081526040519081900360200190208151819062000bc1908262000d38565b5060208201516001820180546001600160a01b0319166001600160a01b0390921691909117905560408201516002820155606082015160038201556080909101516004909101555062000e04565b600580546001600160a01b038381166001600160a01b0319831681179093556040519116919082907f8be0079c531659141344cd1fd0a4f28419497f9722a3daafe3b4186f6b6457e090600090a35050565b60006020828403121562000c7457600080fd5b81516001600160a01b038116811462000c8c57600080fd5b9392505050565b634e487b7160e01b600052604160045260246000fd5b600181811c9082168062000cbe57607f821691505b60208210810362000cdf57634e487b7160e01b600052602260045260246000fd5b50919050565b601f82111562000d3357600081815260208120601f850160051c8101602086101562000d0e5750805b601f850160051c820191505b8181101562000d2f5782815560010162000d1a565b5050505b505050565b81516001600160401b0381111562000d545762000d5462000c93565b62000d6c8162000d65845462000ca9565b8462000ce5565b602080601f83116001811462000da4576000841562000d8b5750858301515b600019600386901b1c1916600185901b17855562000d2f565b600085815260208120601f198616915b8281101562000dd55788860151825594840194600190910190840162000db4565b508582101562000df45787850151600019600388901b60f8161c191681555b5050505050600190811b01905550565b60805160a05160c05160e05161010051610120516101405161016051610180516101a0516101c0516101e05161020051610fde62000e7a60003960005050600050506000505060005050600050506000505060005050600050506000505060005050600050506000505060005050610fde6000f3fe608060405234801561001057600080fd5b50600436106101165760003560e01c806370a08231116100a25780639dc29fac116100715780639dc29fac1461023f578063a9059cbb14610252578063dd62ed3e14610265578063ec55cd4d1461029e578063f2fde38b146102b157600080fd5b806370a08231146101eb578063715018a6146102145780638da5cb5b1461021c57806395d89b411461023757600080fd5b8063313ce567116100e9578063313ce5671461018157806338324ca11461019057806340c10f19146101a557806340d1cc8d146101b85780636f5bea19146101cb57600080fd5b806306fdde031461011b578063095ea7b31461013957806318160ddd1461015c57806323b872dd1461016e575b600080fd5b6101236102c4565b6040516101309190610c48565b60405180910390f35b61014c610147366004610c7e565b610356565b6040519015158152602001610130565b6002545b604051908152602001610130565b61014c61017c366004610ca8565b610370565b60405160128152602001610130565b6101a361019e366004610d87565b610394565b005b6101a36101b3366004610c7e565b61040a565b6101a36101c6366004610dd5565b610420565b6101de6101d9366004610e1a565b610547565b6040516101309190610e57565b6101606101f9366004610eaf565b6001600160a01b031660009081526020819052604090205490565b6101a3610675565b6005546040516001600160a01b039091168152602001610130565b610123610689565b6101a361024d366004610c7e565b610698565b61014c610260366004610c7e565b6106aa565b610160610273366004610eca565b6001600160a01b03918216600090815260016020908152604080832093909416825291909152205490565b6101a36102ac366004610dd5565b6106b8565b6101a36102bf366004610eaf565b6107e1565b6060600380546102d390610ef4565b80601f01602080910402602001604051908101604052809291908181526020018280546102ff90610ef4565b801561034c5780601f106103215761010080835404028352916020019161034c565b820191906000526020600020905b81548152906001019060200180831161032f57829003601f168201915b5050505050905090565b60003361036481858561081f565b60019150505b92915050565b60003361037e858285610831565b6103898585856108af565b506001949350505050565b61039c61090e565b60006006836040516103ae9190610f2e565b90815260405190819003602001902090506001600160a01b0382166103e6576040516323adaea960e11b815260040160405180910390fd5b60010180546001600160a01b0319166001600160a01b039290921691909117905550565b61041261090e565b61041c828261093b565b5050565b61042861090e565b600060068360405161043a9190610f2e565b90815260200160405180910390209050600081600001805461045b90610ef4565b9050116104af5760405162461bcd60e51b815260206004820152601f60248201527f56657374696e67207363686564756c6520646f6573206e6f742065786973740060448201526064015b60405180910390fd5b8060020154816003015411156104d85760405163dbd36e2f60e01b815260040160405180910390fd5b818160030160008282546104ec9190610f60565b90915550506001810154610509906001600160a01b031683610971565b7f8d18638aecd5f6a358a21c99a311564807958543e684ee8f25b536acf89b4a82838360405161053a929190610f73565b60405180910390a1505050565b6105826040518060a001604052806060815260200160006001600160a01b031681526020016000815260200160008152602001600081525090565b6006826040516105929190610f2e565b90815260200160405180910390206040518060a00160405290816000820180546105bb90610ef4565b80601f01602080910402602001604051908101604052809291908181526020018280546105e790610ef4565b80156106345780601f1061060957610100808354040283529160200191610634565b820191906000526020600020905b81548152906001019060200180831161061757829003601f168201915b505050918352505060018201546001600160a01b03166020820152600282015460408201526003820154606082015260049091015460809091015292915050565b61067d61090e565b61068760006109a7565b565b6060600480546102d390610ef4565b6106a061090e565b61041c8282610971565b6000336103648185856108af565b6106c061090e565b60006006836040516106d29190610f2e565b908152602001604051809103902090508060000180546106f190610ef4565b90506000036107425760405162461bcd60e51b815260206004820152601f60248201527f56657374696e67207363686564756c6520646f6573206e6f742065786973740060448201526064016104a6565b80600201548282600301546107579190610f95565b11156107765760405163dbd36e2f60e01b815260040160405180910390fd5b428160040181905550818160030160008282546107939190610f95565b909155505060018101546107b0906001600160a01b03168361093b565b7f4b0c19139870c71728477505494bea5d02353ee00ed4bc7328d28958c4648ad6838360405161053a929190610f73565b6107e961090e565b6001600160a01b03811661081357604051631e4fbdf760e01b8152600060048201526024016104a6565b61081c816109a7565b50565b61082c83838360016109f9565b505050565b6001600160a01b0383811660009081526001602090815260408083209386168352929052205460001981146108a9578181101561089a57604051637dc7a0d960e11b81526001600160a01b038416600482015260248101829052604481018390526064016104a6565b6108a9848484840360006109f9565b50505050565b6001600160a01b0383166108d957604051634b637e8f60e11b8152600060048201526024016104a6565b6001600160a01b0382166109035760405163ec442f0560e01b8152600060048201526024016104a6565b61082c838383610ace565b6005546001600160a01b031633146106875760405163118cdaa760e01b81523360048201526024016104a6565b6001600160a01b0382166109655760405163ec442f0560e01b8152600060048201526024016104a6565b61041c60008383610ace565b6001600160a01b03821661099b57604051634b637e8f60e11b8152600060048201526024016104a6565b61041c82600083610ace565b600580546001600160a01b038381166001600160a01b0319831681179093556040519116919082907f8be0079c531659141344cd1fd0a4f28419497f9722a3daafe3b4186f6b6457e090600090a35050565b6001600160a01b038416610a235760405163e602df0560e01b8152600060048201526024016104a6565b6001600160a01b038316610a4d57604051634a1406b160e11b8152600060048201526024016104a6565b6001600160a01b03808516600090815260016020908152604080832093871683529290522082905580156108a957826001600160a01b0316846001600160a01b03167f8c5be1e5ebec7d5bd14f71427d1e84f3dd0314c0f7b2291e5b200ac8c7c3b92584604051610ac091815260200190565b60405180910390a350505050565b6001600160a01b038316610af9578060026000828254610aee9190610f95565b90915550610b6b9050565b6001600160a01b03831660009081526020819052604090205481811015610b4c5760405163391434e360e21b81526001600160a01b038516600482015260248101829052604481018390526064016104a6565b6001600160a01b03841660009081526020819052604090209082900390555b6001600160a01b038216610b8757600280548290039055610ba6565b6001600160a01b03821660009081526020819052604090208054820190555b816001600160a01b0316836001600160a01b03167fddf252ad1be2c89b69c2b068fc378daa952ba7f163c4a11628f55a4df523b3ef83604051610beb91815260200190565b60405180910390a3505050565b60005b83811015610c13578181015183820152602001610bfb565b50506000910152565b60008151808452610c34816020860160208601610bf8565b601f01601f19169290920160200192915050565b602081526000610c5b6020830184610c1c565b9392505050565b80356001600160a01b0381168114610c7957600080fd5b919050565b60008060408385031215610c9157600080fd5b610c9a83610c62565b946020939093013593505050565b600080600060608486031215610cbd57600080fd5b610cc684610c62565b9250610cd460208501610c62565b9150604084013590509250925092565b634e487b7160e01b600052604160045260246000fd5b600082601f830112610d0b57600080fd5b813567ffffffffffffffff80821115610d2657610d26610ce4565b604051601f8301601f19908116603f01168101908282118183101715610d4e57610d4e610ce4565b81604052838152866020858801011115610d6757600080fd5b836020870160208301376000602085830101528094505050505092915050565b60008060408385031215610d9a57600080fd5b823567ffffffffffffffff811115610db157600080fd5b610dbd85828601610cfa565b925050610dcc60208401610c62565b90509250929050565b60008060408385031215610de857600080fd5b823567ffffffffffffffff811115610dff57600080fd5b610e0b85828601610cfa565b95602094909401359450505050565b600060208284031215610e2c57600080fd5b813567ffffffffffffffff811115610e4357600080fd5b610e4f84828501610cfa565b949350505050565b602081526000825160a06020840152610e7360c0840182610c1c565b905060018060a01b0360208501511660408401526040840151606084015260608401516080840152608084015160a08401528091505092915050565b600060208284031215610ec157600080fd5b610c5b82610c62565b60008060408385031215610edd57600080fd5b610ee683610c62565b9150610dcc60208401610c62565b600181811c90821680610f0857607f821691505b602082108103610f2857634e487b7160e01b600052602260045260246000fd5b50919050565b60008251610f40818460208701610bf8565b9190910192915050565b634e487b7160e01b600052601160045260246000fd5b8181038181111561036a5761036a610f4a565b604081526000610f866040830185610c1c565b90508260208301529392505050565b8082018082111561036a5761036a610f4a56fea2646970667358221220f069929734d9fae4bf2f906e35631e77546e221c6834855a467512c3c8908d1e64736f6c63430008140033","linkReferences":{}},"methodIdentifiers":{"allowance(address,address)":"dd62ed3e","approve(address,uint256)":"095ea7b3","balanceOf(address)":"70a08231","burn(address,uint256)":"9dc29fac","burnForAllocation(string,uint256)":"40d1cc8d","changeAllocationAdmin(string,address)":"38324ca1","decimals()":"313ce567","getVestingSchedule(string)":"6f5bea19","mint(address,uint256)":"40c10f19","mintForAllocation(string,uint256)":"ec55cd4d","name()":"06fdde03","owner()":"8da5cb5b","renounceOwnership()":"715018a6","symbol()":"95d89b41","totalSupply()":"18160ddd","transfer(address,uint256)":"a9059cbb","transferFrom(address,address,uint256)":"23b872dd","transferOwnership(address)":"f2fde38b"},"id":52}