{"abi":[{"type":"constructor","inputs":[{"name":"initialOwner","type":"address","internalType":"address"}],"stateMutability":"nonpayable"},{"type":"function","name":"_tokenIdCounter","inputs":[],"outputs":[{"name":"","type":"uint256","internalType":"uint256"}],"stateMutability":"view"},{"type":"function","name":"addAdmin","inputs":[{"name":"admin","type":"address","internalType":"address"}],"outputs":[],"stateMutability":"nonpayable"},{"type":"function","name":"admins","inputs":[{"name":"","type":"address","internalType":"address"}],"outputs":[{"name":"","type":"bool","internalType":"bool"}],"stateMutability":"view"},{"type":"function","name":"approve","inputs":[{"name":"to","type":"address","internalType":"address"},{"name":"tokenId","type":"uint256","internalType":"uint256"}],"outputs":[],"stateMutability":"nonpayable"},{"type":"function","name":"balanceOf","inputs":[{"name":"owner","type":"address","internalType":"address"}],"outputs":[{"name":"","type":"uint256","internalType":"uint256"}],"stateMutability":"view"},{"type":"function","name":"buyLand","inputs":[{"name":"tokenId","type":"uint256","internalType":"uint256"}],"outputs":[],"stateMutability":"payable"},{"type":"function","name":"deleteLand","inputs":[{"name":"tokenId","type":"uint256","internalType":"uint256"}],"outputs":[],"stateMutability":"nonpayable"},{"type":"function","name":"editLandInfo","inputs":[{"name":"tokenId","type":"uint256","internalType":"uint256"},{"name":"newPrice","type":"uint256","internalType":"uint256"},{"name":"newLocationName","type":"string","internalType":"string"},{"name":"newDescription","type":"string","internalType":"string"},{"name":"newSize","type":"string","internalType":"string"}],"outputs":[],"stateMutability":"nonpayable"},{"type":"function","name":"getApproved","inputs":[{"name":"tokenId","type":"uint256","internalType":"uint256"}],"outputs":[{"name":"","type":"address","internalType":"address"}],"stateMutability":"view"},{"type":"function","name":"getLand","inputs":[{"name":"_index","type":"uint256","internalType":"uint256"}],"outputs":[{"name":"","type":"tuple","internalType":"struct SkyMateNFT.Land","components":[{"name":"id","type":"uint256","internalType":"uint256"},{"name":"coordinates","type":"string","internalType":"string"},{"name":"locationName","type":"string","internalType":"string"},{"name":"description","type":"string","internalType":"string"},{"name":"price","type":"uint256","internalType":"uint256"},{"name":"onSale","type":"bool","internalType":"bool"},{"name":"zoneName","type":"string","internalType":"string"},{"name":"size","type":"string","internalType":"string"}]}],"stateMutability":"view"},{"type":"function","name":"isApprovedForAll","inputs":[{"name":"owner","type":"address","internalType":"address"},{"name":"operator","type":"address","internalType":"address"}],"outputs":[{"name":"","type":"bool","internalType":"bool"}],"stateMutability":"view"},{"type":"function","name":"lands","inputs":[{"name":"","type":"uint256","internalType":"uint256"}],"outputs":[{"name":"id","type":"uint256","internalType":"uint256"},{"name":"coordinates","type":"string","internalType":"string"},{"name":"locationName","type":"string","internalType":"string"},{"name":"description","type":"string","internalType":"string"},{"name":"price","type":"uint256","internalType":"uint256"},{"name":"onSale","type":"bool","internalType":"bool"},{"name":"zoneName","type":"string","internalType":"string"},{"name":"size","type":"string","internalType":"string"}],"stateMutability":"view"},{"type":"function","name":"name","inputs":[],"outputs":[{"name":"","type":"string","internalType":"string"}],"stateMutability":"view"},{"type":"function","name":"owner","inputs":[],"outputs":[{"name":"","type":"address","internalType":"address"}],"stateMutability":"view"},{"type":"function","name":"ownerOf","inputs":[{"name":"tokenId","type":"uint256","internalType":"uint256"}],"outputs":[{"name":"","type":"address","internalType":"address"}],"stateMutability":"view"},{"type":"function","name":"removeAdmin","inputs":[{"name":"admin","type":"address","internalType":"address"}],"outputs":[],"stateMutability":"nonpayable"},{"type":"function","name":"renounceOwnership","inputs":[],"outputs":[],"stateMutability":"nonpayable"},{"type":"function","name":"safeTransferFrom","inputs":[{"name":"from","type":"address","internalType":"address"},{"name":"to","type":"address","internalType":"address"},{"name":"tokenId","type":"uint256","internalType":"uint256"}],"outputs":[],"stateMutability":"nonpayable"},{"type":"function","name":"safeTransferFrom","inputs":[{"name":"from","type":"address","internalType":"address"},{"name":"to","type":"address","internalType":"address"},{"name":"tokenId","type":"uint256","internalType":"uint256"},{"name":"data","type":"bytes","internalType":"bytes"}],"outputs":[],"stateMutability":"nonpayable"},{"type":"function","name":"setApprovalForAll","inputs":[{"name":"operator","type":"address","internalType":"address"},{"name":"approved","type":"bool","internalType":"bool"}],"outputs":[],"stateMutability":"nonpayable"},{"type":"function","name":"supportsInterface","inputs":[{"name":"interfaceId","type":"bytes4","internalType":"bytes4"}],"outputs":[{"name":"","type":"bool","internalType":"bool"}],"stateMutability":"view"},{"type":"function","name":"symbol","inputs":[],"outputs":[{"name":"","type":"string","internalType":"string"}],"stateMutability":"view"},{"type":"function","name":"tokenURI","inputs":[{"name":"tokenId","type":"uint256","internalType":"uint256"}],"outputs":[{"name":"","type":"string","internalType":"string"}],"stateMutability":"view"},{"type":"function","name":"transferFrom","inputs":[{"name":"from","type":"address","internalType":"address"},{"name":"to","type":"address","internalType":"address"},{"name":"tokenId","type":"uint256","internalType":"uint256"}],"outputs":[],"stateMutability":"nonpayable"},{"type":"function","name":"transferLandOwnership","inputs":[{"name":"tokenId","type":"uint256","internalType":"uint256"},{"name":"newOwner","type":"address","internalType":"address"}],"outputs":[],"stateMutability":"nonpayable"},{"type":"function","name":"transferOwnership","inputs":[{"name":"newOwner","type":"address","internalType":"address"}],"outputs":[],"stateMutability":"nonpayable"},{"type":"function","name":"updateLandSaleStatus","inputs":[{"name":"tokenId","type":"uint256","internalType":"uint256"},{"name":"status","type":"bool","internalType":"bool"}],"outputs":[],"stateMutability":"nonpayable"},{"type":"function","name":"uploadLand","inputs":[{"name":"coordinates","type":"string","internalType":"string"},{"name":"locationName","type":"string","internalType":"string"},{"name":"description","type":"string","internalType":"string"},{"name":"zone","type":"string","internalType":"string"},{"name":"price","type":"uint256","internalType":"uint256"},{"name":"size","type":"string","internalType":"string"},{"name":"tokenURI","type":"string","internalType":"string"}],"outputs":[{"name":"","type":"uint256","internalType":"uint256"}],"stateMutability":"nonpayable"},{"type":"function","name":"zoneCounters","inputs":[{"name":"","type":"string","internalType":"string"}],"outputs":[{"name":"","type":"uint256","internalType":"uint256"}],"stateMutability":"view"},{"type":"event","name":"Approval","inputs":[{"name":"owner","type":"address","indexed":true,"internalType":"address"},{"name":"approved","type":"address","indexed":true,"internalType":"address"},{"name":"tokenId","type":"uint256","indexed":true,"internalType":"uint256"}],"anonymous":false},{"type":"event","name":"ApprovalForAll","inputs":[{"name":"owner","type":"address","indexed":true,"internalType":"address"},{"name":"operator","type":"address","indexed":true,"internalType":"address"},{"name":"approved","type":"bool","indexed":false,"internalType":"bool"}],"anonymous":false},{"type":"event","name":"BatchMetadataUpdate","inputs":[{"name":"_fromTokenId","type":"uint256","indexed":false,"internalType":"uint256"},{"name":"_toTokenId","type":"uint256","indexed":false,"internalType":"uint256"}],"anonymous":false},{"type":"event","name":"LandBought","inputs":[{"name":"tokenId","type":"uint256","indexed":false,"internalType":"uint256"},{"name":"buyer","type":"address","indexed":true,"internalType":"address"},{"name":"price","type":"uint256","indexed":false,"internalType":"uint256"}],"anonymous":false},{"type":"event","name":"LandInfoUpdated","inputs":[{"name":"tokenId","type":"uint256","indexed":false,"internalType":"uint256"},{"name":"price","type":"uint256","indexed":false,"internalType":"uint256"},{"name":"locationName","type":"string","indexed":false,"internalType":"string"},{"name":"description","type":"string","indexed":false,"internalType":"string"},{"name":"size","type":"string","indexed":false,"internalType":"string"}],"anonymous":false},{"type":"event","name":"LandSaleStatusUpdated","inputs":[{"name":"tokenId","type":"uint256","indexed":false,"internalType":"uint256"},{"name":"status","type":"bool","indexed":false,"internalType":"bool"}],"anonymous":false},{"type":"event","name":"LandUploaded","inputs":[{"name":"tokenId","type":"uint256","indexed":false,"internalType":"uint256"},{"name":"admin","type":"address","indexed":true,"internalType":"address"},{"name":"coordinates","type":"string","indexed":false,"internalType":"string"}],"anonymous":false},{"type":"event","name":"MetadataUpdate","inputs":[{"name":"_tokenId","type":"uint256","indexed":false,"internalType":"uint256"}],"anonymous":false},{"type":"event","name":"OwnershipTransferred","inputs":[{"name":"previousOwner","type":"address","indexed":true,"internalType":"address"},{"name":"newOwner","type":"address","indexed":true,"internalType":"address"}],"anonymous":false},{"type":"event","name":"OwnershipTransferred","inputs":[{"name":"tokenId","type":"uint256","indexed":false,"internalType":"uint256"},{"name":"previousOwner","type":"address","indexed":true,"internalType":"address"},{"name":"newOwner","type":"address","indexed":true,"internalType":"address"}],"anonymous":false},{"type":"event","name":"Transfer","inputs":[{"name":"from","type":"address","indexed":true,"internalType":"address"},{"name":"to","type":"address","indexed":true,"internalType":"address"},{"name":"tokenId","type":"uint256","indexed":true,"internalType":"uint256"}],"anonymous":false},{"type":"error","name":"ERC721IncorrectOwner","inputs":[{"name":"sender","type":"address","internalType":"address"},{"name":"tokenId","type":"uint256","internalType":"uint256"},{"name":"owner","type":"address","internalType":"address"}]},{"type":"error","name":"ERC721InsufficientApproval","inputs":[{"name":"operator","type":"address","internalType":"address"},{"name":"tokenId","type":"uint256","internalType":"uint256"}]},{"type":"error","name":"ERC721InvalidApprover","inputs":[{"name":"approver","type":"address","internalType":"address"}]},{"type":"error","name":"ERC721InvalidOperator","inputs":[{"name":"operator","type":"address","internalType":"address"}]},{"type":"error","name":"ERC721InvalidOwner","inputs":[{"name":"owner","type":"address","internalType":"address"}]},{"type":"error","name":"ERC721InvalidReceiver","inputs":[{"name":"receiver","type":"address","internalType":"address"}]},{"type":"error","name":"ERC721InvalidSender","inputs":[{"name":"sender","type":"address","internalType":"address"}]},{"type":"error","name":"ERC721NonexistentToken","inputs":[{"name":"tokenId","type":"uint256","internalType":"uint256"}]},{"type":"error","name":"OwnableInvalidOwner","inputs":[{"name":"owner","type":"address","internalType":"address"}]},{"type":"error","name":"OwnableUnauthorizedAccount","inputs":[{"name":"account","type":"address","internalType":"address"}]},{"type":"error","name":"SkyMateNFT_FailedTransaction","inputs":[]},{"type":"error","name":"SkyMateNFT_InsufficientFunds","inputs":[]},{"type":"error","name":"SkyMateNFT_InvalidPrice","inputs":[]},{"type":"error","name":"SkyMateNFT_LandDoesNotExist","inputs":[]},{"type":"error","name":"SkyMateNFT_LandNotForSale","inputs":[]},{"type":"error","name":"SkyMateNFT_NotAuthorized","inputs":[]}],"bytecode":{"object":"0x60806040523480156200001157600080fd5b5060405162002ca338038062002ca3833981016040819052620000349162000154565b806040518060400160405280600a81526020016914dade53585d1953919560b21b8152506040518060400160405280600581526020016414d353919560da1b81525081600090816200008791906200022b565b5060016200009682826200022b565b5050506001600160a01b038116620000c857604051631e4fbdf760e01b81526000600482015260240160405180910390fd5b620000d38162000102565b506001600160a01b03166000908152600a60205260409020805460ff19166001908117909155600855620002f7565b600780546001600160a01b038381166001600160a01b0319831681179093556040519116919082907f8be0079c531659141344cd1fd0a4f28419497f9722a3daafe3b4186f6b6457e090600090a35050565b6000602082840312156200016757600080fd5b81516001600160a01b03811681146200017f57600080fd5b9392505050565b634e487b7160e01b600052604160045260246000fd5b600181811c90821680620001b157607f821691505b602082108103620001d257634e487b7160e01b600052602260045260246000fd5b50919050565b601f8211156200022657600081815260208120601f850160051c81016020861015620002015750805b601f850160051c820191505b8181101562000222578281556001016200020d565b5050505b505050565b81516001600160401b0381111562000247576200024762000186565b6200025f816200025884546200019c565b84620001d8565b602080601f8311600181146200029757600084156200027e5750858301515b600019600386901b1c1916600185901b17855562000222565b600085815260208120601f198616915b82811015620002c857888601518255948401946001909101908401620002a7565b5085821015620002e75787850151600019600388901b60f8161c191681555b5050505050600190811b01905550565b61299c80620003076000396000f3fe6080604052600436106101c25760003560e01c806384c4bd4b116100f7578063c87b56dd11610095578063f02dd53f11610064578063f02dd53f1461051b578063f2fde38b14610548578063fc6afbe314610568578063fd9b2c8d146105a057600080fd5b8063c87b56dd14610494578063ced39558146104b4578063e261f1e5146104c7578063e985e9c5146104fb57600080fd5b8063a22cb465116100d1578063a22cb46514610414578063b88d4fde14610434578063b8f3f14d14610454578063c64ab4cf1461047457600080fd5b806384c4bd4b146103cb5780638da5cb5b146103e157806395d89b41146103ff57600080fd5b8063429b62e511610164578063704802751161013e578063704802751461034857806370a0823114610368578063715018a6146103965780638129f260146103ab57600080fd5b8063429b62e5146102d85780635b6c9dad146103085780636352211e1461032857600080fd5b8063095ea7b3116101a0578063095ea7b3146102565780631785f53c1461027857806323b872dd1461029857806342842e0e146102b857600080fd5b806301ffc9a7146101c757806306fdde03146101fc578063081812fc1461021e575b600080fd5b3480156101d357600080fd5b506101e76101e23660046120ca565b6105c0565b60405190151581526020015b60405180910390f35b34801561020857600080fd5b506102116105eb565b6040516101f39190612137565b34801561022a57600080fd5b5061023e61023936600461214a565b61067d565b6040516001600160a01b0390911681526020016101f3565b34801561026257600080fd5b5061027661027136600461217f565b6106a6565b005b34801561028457600080fd5b506102766102933660046121a9565b6106b5565b3480156102a457600080fd5b506102766102b33660046121c4565b6106de565b3480156102c457600080fd5b506102766102d33660046121c4565b61076e565b3480156102e457600080fd5b506101e76102f33660046121a9565b600a6020526000908152604090205460ff1681565b34801561031457600080fd5b506102766103233660046122ac565b61078e565b34801561033457600080fd5b5061023e61034336600461214a565b610887565b34801561035457600080fd5b506102766103633660046121a9565b610892565b34801561037457600080fd5b506103886103833660046121a9565b6108be565b6040519081526020016101f3565b3480156103a257600080fd5b50610276610906565b3480156103b757600080fd5b506103886103c6366004612348565b61091a565b3480156103d757600080fd5b5061038860085481565b3480156103ed57600080fd5b506007546001600160a01b031661023e565b34801561040b57600080fd5b50610211610b4e565b34801561042057600080fd5b5061027661042f366004612458565b610b5d565b34801561044057600080fd5b5061027661044f36600461248b565b610b68565b34801561046057600080fd5b5061027661046f366004612507565b610b80565b34801561048057600080fd5b5061027661048f36600461252a565b610c13565b3480156104a057600080fd5b506102116104af36600461214a565b610ca6565b6102766104c236600461214a565b610db7565b3480156104d357600080fd5b506104e76104e236600461214a565b610f24565b6040516101f398979695949392919061254d565b34801561050757600080fd5b506101e76105163660046125d4565b611215565b34801561052757600080fd5b5061053b61053636600461214a565b611243565b6040516101f391906125fe565b34801561055457600080fd5b506102766105633660046121a9565b6115b4565b34801561057457600080fd5b506103886105833660046126c5565b8051602081830181018051600b8252928201919093012091525481565b3480156105ac57600080fd5b506102766105bb36600461214a565b6115f2565b60006001600160e01b03198216632483248360e11b14806105e557506105e582611750565b92915050565b6060600080546105fa906126fa565b80601f0160208091040260200160405190810160405280929190818152602001828054610626906126fa565b80156106735780601f1061064857610100808354040283529160200191610673565b820191906000526020600020905b81548152906001019060200180831161065657829003601f168201915b5050505050905090565b6000610688826117a0565b506000828152600460205260409020546001600160a01b03166105e5565b6106b18282336117d9565b5050565b6106bd6117e6565b6001600160a01b03166000908152600a60205260409020805460ff19169055565b6001600160a01b03821661070d57604051633250574960e11b8152600060048201526024015b60405180910390fd5b600061071a838333611813565b9050836001600160a01b0316816001600160a01b031614610768576040516364283d7b60e01b81526001600160a01b0380861660048301526024820184905282166044820152606401610704565b50505050565b61078983838360405180602001604052806000815250610b68565b505050565b600061079986610887565b9050336001600160a01b038216146107c457604051635c04ba8f60e01b815260040160405180910390fd5b600085116107e55760405163a123dc9d60e01b815260040160405180910390fd5b600086815260096020526040902060048101869055600201610807858261277a565b506000868152600960205260409020600301610823848261277a565b50600086815260096020526040902060070161083f838261277a565b507f5d369d366b8f889aaf61ce5e59c28c2dfcc0578c08724fa1a02ec59e4ba51144868686868660405161087795949392919061283a565b60405180910390a1505050505050565b60006105e5826117a0565b61089a6117e6565b6001600160a01b03166000908152600a60205260409020805460ff19166001179055565b60006001600160a01b0382166108ea576040516322718ad960e21b815260006004820152602401610704565b506001600160a01b031660009081526003602052604090205490565b61090e6117e6565b610918600061190c565b565b336000908152600a602052604081205460ff1661094a57604051635c04ba8f60e01b815260040160405180910390fd5b6000841161096b5760405163a123dc9d60e01b815260040160405180910390fd5b600854604051600b9061097f90889061288b565b908152604051908190036020019020805490600061099c836128a7565b91905055506109bc6109b66007546001600160a01b031690565b8261195e565b6109c681846119c3565b6000866109f0600b896040516109dc919061288b565b908152602001604051809103902054611a0c565b604051602001610a019291906128ce565b60408051601f198184030181526101008301825284835260208381018e81528484018e9052606085018d9052608085018b9052600160a0860181905260c0860184905260e086018b9052600088815260099093529390912084518155905191945091820190610a70908261277a565b5060408201516002820190610a85908261277a565b5060608201516003820190610a9a908261277a565b506080820151600482015560a082015160058201805460ff191691151591909117905560c08201516006820190610ad1908261277a565b5060e08201516007820190610ae6908261277a565b50506008805491506000610af9836128a7565b9190505550336001600160a01b03167f61409a3abeb8a699b455b8900c15d4152b733139f8a4e1b9a0c6db7c8ba4f3ec838c604051610b399291906128fd565b60405180910390a25098975050505050505050565b6060600180546105fa906126fa565b6106b1338383611a9f565b610b738484846106de565b6107683385858585611b36565b6000610b8b83610887565b9050336001600160a01b03821614610bb657604051635c04ba8f60e01b815260040160405180910390fd5b600083815260096020908152604091829020600501805460ff19168515159081179091558251868152918201527f05e98fc4109d93af1378403b4988d8e6071e2acc457350996c6a141a73bbfa56910160405180910390a1505050565b6000610c1e83610887565b9050336001600160a01b03821614610c4957604051635c04ba8f60e01b815260040160405180910390fd5b610c54818385611c61565b816001600160a01b0316816001600160a01b03167f16b85f49bf01212961345d3016c9a531894accf62eb7680f2045d79185cc0ec085604051610c9991815260200190565b60405180910390a3505050565b6060610cb1826117a0565b5060008281526006602052604081208054610ccb906126fa565b80601f0160208091040260200160405190810160405280929190818152602001828054610cf7906126fa565b8015610d445780601f10610d1957610100808354040283529160200191610d44565b820191906000526020600020905b815481529060010190602001808311610d2757829003601f168201915b505050505090506000610d6260408051602081019091526000815290565b90508051600003610d74575092915050565b815115610da6578082604051602001610d8e9291906128ce565b60405160208183030381529060405292505050919050565b610daf84611d11565b949350505050565b6000818152600960205260409020600581015460ff16610dea5760405163216bac8d60e11b815260040160405180910390fd5b8054600003610e0c5760405163d34d5c1360e01b815260040160405180910390fd5b8060040154341015610e31576040516370af7d9760e11b815260040160405180910390fd5b6000610e3c83610887565b60058301805460ff19169055600483015460405191925033916000916001600160a01b038516918381818185875af1925050503d8060008114610e9b576040519150601f19603f3d011682016040523d82523d6000602084013e610ea0565b606091505b5050905080610ec257604051630da41a6d60e31b815260040160405180910390fd5b610ecd838387611c61565b816001600160a01b03167ff240bec15fb695f4a5d675ef66f2bf676a48b0068617c8718d7d6bbcc8adaf27868660040154604051610f15929190918252602082015260400190565b60405180910390a25050505050565b60096020526000908152604090208054600182018054919291610f46906126fa565b80601f0160208091040260200160405190810160405280929190818152602001828054610f72906126fa565b8015610fbf5780601f10610f9457610100808354040283529160200191610fbf565b820191906000526020600020905b815481529060010190602001808311610fa257829003601f168201915b505050505090806002018054610fd4906126fa565b80601f0160208091040260200160405190810160405280929190818152602001828054611000906126fa565b801561104d5780601f106110225761010080835404028352916020019161104d565b820191906000526020600020905b81548152906001019060200180831161103057829003601f168201915b505050505090806003018054611062906126fa565b80601f016020809104026020016040519081016040528092919081815260200182805461108e906126fa565b80156110db5780601f106110b0576101008083540402835291602001916110db565b820191906000526020600020905b8154815290600101906020018083116110be57829003601f168201915b50505050600483015460058401546006850180549495929460ff909216935090611104906126fa565b80601f0160208091040260200160405190810160405280929190818152602001828054611130906126fa565b801561117d5780601f106111525761010080835404028352916020019161117d565b820191906000526020600020905b81548152906001019060200180831161116057829003601f168201915b505050505090806007018054611192906126fa565b80601f01602080910402602001604051908101604052809291908181526020018280546111be906126fa565b801561120b5780601f106111e05761010080835404028352916020019161120b565b820191906000526020600020905b8154815290600101906020018083116111ee57829003601f168201915b5050505050905088565b6001600160a01b03918216600090815260056020908152604080832093909416825291909152205460ff1690565b61128d604051806101000160405280600081526020016060815260200160608152602001606081526020016000815260200160001515815260200160608152602001606081525090565b6009600083815260200190815260200160002060405180610100016040529081600082015481526020016001820180546112c6906126fa565b80601f01602080910402602001604051908101604052809291908181526020018280546112f2906126fa565b801561133f5780601f106113145761010080835404028352916020019161133f565b820191906000526020600020905b81548152906001019060200180831161132257829003601f168201915b50505050508152602001600282018054611358906126fa565b80601f0160208091040260200160405190810160405280929190818152602001828054611384906126fa565b80156113d15780601f106113a6576101008083540402835291602001916113d1565b820191906000526020600020905b8154815290600101906020018083116113b457829003601f168201915b505050505081526020016003820180546113ea906126fa565b80601f0160208091040260200160405190810160405280929190818152602001828054611416906126fa565b80156114635780601f1061143857610100808354040283529160200191611463565b820191906000526020600020905b81548152906001019060200180831161144657829003601f168201915b505050918352505060048201546020820152600582015460ff1615156040820152600682018054606090920191611499906126fa565b80601f01602080910402602001604051908101604052809291908181526020018280546114c5906126fa565b80156115125780601f106114e757610100808354040283529160200191611512565b820191906000526020600020905b8154815290600101906020018083116114f557829003601f168201915b5050505050815260200160078201805461152b906126fa565b80601f0160208091040260200160405190810160405280929190818152602001828054611557906126fa565b80156115a45780601f10611579576101008083540402835291602001916115a4565b820191906000526020600020905b81548152906001019060200180831161158757829003601f168201915b5050505050815250509050919050565b6115bc6117e6565b6001600160a01b0381166115e657604051631e4fbdf760e01b815260006004820152602401610704565b6115ef8161190c565b50565b6115fa6117e6565b6000818152600960205260408120805490910361162a5760405163d34d5c1360e01b815260040160405180910390fd5b6007546001600160a01b031661163f83610887565b6001600160a01b03161461166657604051635c04ba8f60e01b815260040160405180910390fd5b61166f82611d86565b60008281526009602052604081208181559061168e6001830182612066565b61169c600283016000612066565b6116aa600383016000612066565b60006004830181905560058301805460ff191690556116cd906006840190612066565b6116db600783016000612066565b50507f5d369d366b8f889aaf61ce5e59c28c2dfcc0578c08724fa1a02ec59e4ba51144826000604051611744929190918252602082015260a060408201819052600090820181905260c060608301819052820181905260e0608083018190528201526101000190565b60405180910390a15050565b60006001600160e01b031982166380ac58cd60e01b148061178157506001600160e01b03198216635b5e139f60e01b145b806105e557506301ffc9a760e01b6001600160e01b03198316146105e5565b6000818152600260205260408120546001600160a01b0316806105e557604051637e27328960e01b815260048101849052602401610704565b6107898383836001611dc1565b6007546001600160a01b031633146109185760405163118cdaa760e01b8152336004820152602401610704565b6000828152600260205260408120546001600160a01b039081169083161561184057611840818486611ec7565b6001600160a01b0381161561187e5761185d600085600080611dc1565b6001600160a01b038116600090815260036020526040902080546000190190555b6001600160a01b038516156118ad576001600160a01b0385166000908152600360205260409020805460010190555b60008481526002602052604080822080546001600160a01b0319166001600160a01b0389811691821790925591518793918516917fddf252ad1be2c89b69c2b068fc378daa952ba7f163c4a11628f55a4df523b3ef91a4949350505050565b600780546001600160a01b038381166001600160a01b0319831681179093556040519116919082907f8be0079c531659141344cd1fd0a4f28419497f9722a3daafe3b4186f6b6457e090600090a35050565b6001600160a01b03821661198857604051633250574960e11b815260006004820152602401610704565b600061199683836000611813565b90506001600160a01b03811615610789576040516339e3563760e11b815260006004820152602401610704565b60008281526006602052604090206119db828261277a565b506040518281527ff8e1a15aba9398e019f0b49df1a4fde98ee17ae345cb5f6b5e2c27f5033e8ce790602001611744565b60606000611a1983611f2b565b600101905060008167ffffffffffffffff811115611a3957611a39612200565b6040519080825280601f01601f191660200182016040528015611a63576020820181803683370190505b5090508181016020015b600019016f181899199a1a9b1b9c1cb0b131b232b360811b600a86061a8153600a8504945084611a6d57509392505050565b6001600160a01b038216611ad157604051630b61174360e31b81526001600160a01b0383166004820152602401610704565b6001600160a01b03838116600081815260056020908152604080832094871680845294825291829020805460ff191686151590811790915591519182527f17307eab39ab6107e8899845ad3d59bd9653f200f220920489ca2b5937696c319101610c99565b6001600160a01b0383163b15611c5a57604051630a85bd0160e11b81526001600160a01b0384169063150b7a0290611b78908890889087908790600401612916565b6020604051808303816000875af1925050508015611bb3575060408051601f3d908101601f19168201909252611bb091810190612949565b60015b611c1c573d808015611be1576040519150601f19603f3d011682016040523d82523d6000602084013e611be6565b606091505b508051600003611c1457604051633250574960e11b81526001600160a01b0385166004820152602401610704565b805181602001fd5b6001600160e01b03198116630a85bd0160e11b14611c5857604051633250574960e11b81526001600160a01b0385166004820152602401610704565b505b5050505050565b6001600160a01b038216611c8b57604051633250574960e11b815260006004820152602401610704565b6000611c9983836000611813565b90506001600160a01b038116611cc557604051637e27328960e01b815260048101839052602401610704565b836001600160a01b0316816001600160a01b031614610768576040516364283d7b60e01b81526001600160a01b0380861660048301526024820184905282166044820152606401610704565b6060611d1c826117a0565b506000611d3460408051602081019091526000815290565b90506000815111611d545760405180602001604052806000815250611d7f565b80611d5e84611a0c565b604051602001611d6f9291906128ce565b6040516020818303038152906040525b9392505050565b6000611d956000836000611813565b90506001600160a01b0381166106b157604051637e27328960e01b815260048101839052602401610704565b8080611dd557506001600160a01b03821615155b15611e97576000611de5846117a0565b90506001600160a01b03831615801590611e115750826001600160a01b0316816001600160a01b031614155b8015611e245750611e228184611215565b155b15611e4d5760405163a9fbf51f60e01b81526001600160a01b0384166004820152602401610704565b8115611e955783856001600160a01b0316826001600160a01b03167f8c5be1e5ebec7d5bd14f71427d1e84f3dd0314c0f7b2291e5b200ac8c7c3b92560405160405180910390a45b505b5050600090815260046020526040902080546001600160a01b0319166001600160a01b0392909216919091179055565b611ed2838383612003565b610789576001600160a01b038316611f0057604051637e27328960e01b815260048101829052602401610704565b60405163177e802f60e01b81526001600160a01b038316600482015260248101829052604401610704565b60008072184f03e93ff9f4daa797ed6e38ed64bf6a1f0160401b8310611f6a5772184f03e93ff9f4daa797ed6e38ed64bf6a1f0160401b830492506040015b6d04ee2d6d415b85acef81000000008310611f96576d04ee2d6d415b85acef8100000000830492506020015b662386f26fc100008310611fb457662386f26fc10000830492506010015b6305f5e1008310611fcc576305f5e100830492506008015b6127108310611fe057612710830492506004015b60648310611ff2576064830492506002015b600a83106105e55760010192915050565b60006001600160a01b03831615801590610daf5750826001600160a01b0316846001600160a01b0316148061203d575061203d8484611215565b80610daf5750506000908152600460205260409020546001600160a01b03908116911614919050565b508054612072906126fa565b6000825580601f10612082575050565b601f0160209004906000526020600020908101906115ef91905b808211156120b0576000815560010161209c565b5090565b6001600160e01b0319811681146115ef57600080fd5b6000602082840312156120dc57600080fd5b8135611d7f816120b4565b60005b838110156121025781810151838201526020016120ea565b50506000910152565b600081518084526121238160208601602086016120e7565b601f01601f19169290920160200192915050565b602081526000611d7f602083018461210b565b60006020828403121561215c57600080fd5b5035919050565b80356001600160a01b038116811461217a57600080fd5b919050565b6000806040838503121561219257600080fd5b61219b83612163565b946020939093013593505050565b6000602082840312156121bb57600080fd5b611d7f82612163565b6000806000606084860312156121d957600080fd5b6121e284612163565b92506121f060208501612163565b9150604084013590509250925092565b634e487b7160e01b600052604160045260246000fd5b600067ffffffffffffffff8084111561223157612231612200565b604051601f8501601f19908116603f0116810190828211818310171561225957612259612200565b8160405280935085815286868601111561227257600080fd5b858560208301376000602087830101525050509392505050565b600082601f83011261229d57600080fd5b611d7f83833560208501612216565b600080600080600060a086880312156122c457600080fd5b8535945060208601359350604086013567ffffffffffffffff808211156122ea57600080fd5b6122f689838a0161228c565b9450606088013591508082111561230c57600080fd5b61231889838a0161228c565b9350608088013591508082111561232e57600080fd5b5061233b8882890161228c565b9150509295509295909350565b600080600080600080600060e0888a03121561236357600080fd5b873567ffffffffffffffff8082111561237b57600080fd5b6123878b838c0161228c565b985060208a013591508082111561239d57600080fd5b6123a98b838c0161228c565b975060408a01359150808211156123bf57600080fd5b6123cb8b838c0161228c565b965060608a01359150808211156123e157600080fd5b6123ed8b838c0161228c565b955060808a0135945060a08a013591508082111561240a57600080fd5b6124168b838c0161228c565b935060c08a013591508082111561242c57600080fd5b506124398a828b0161228c565b91505092959891949750929550565b8035801515811461217a57600080fd5b6000806040838503121561246b57600080fd5b61247483612163565b915061248260208401612448565b90509250929050565b600080600080608085870312156124a157600080fd5b6124aa85612163565b93506124b860208601612163565b925060408501359150606085013567ffffffffffffffff8111156124db57600080fd5b8501601f810187136124ec57600080fd5b6124fb87823560208401612216565b91505092959194509250565b6000806040838503121561251a57600080fd5b8235915061248260208401612448565b6000806040838503121561253d57600080fd5b8235915061248260208401612163565b60006101008a83528060208401526125678184018b61210b565b9050828103604084015261257b818a61210b565b9050828103606084015261258f818961210b565b905086608084015285151560a084015282810360c08401526125b1818661210b565b905082810360e08401526125c5818561210b565b9b9a5050505050505050505050565b600080604083850312156125e757600080fd5b6125f083612163565b915061248260208401612163565b60208152815160208201526000602083015161010080604085015261262761012085018361210b565b91506040850151601f1980868503016060870152612645848361210b565b93506060870151915080868503016080870152612662848361210b565b9350608087015160a087015260a0870151915061268360c087018315159052565b60c08701519150808685030160e087015261269e848361210b565b935060e08701519150808685030183870152506126bb838261210b565b9695505050505050565b6000602082840312156126d757600080fd5b813567ffffffffffffffff8111156126ee57600080fd5b610daf8482850161228c565b600181811c9082168061270e57607f821691505b60208210810361272e57634e487b7160e01b600052602260045260246000fd5b50919050565b601f82111561078957600081815260208120601f850160051c8101602086101561275b5750805b601f850160051c820191505b81811015611c5857828155600101612767565b815167ffffffffffffffff81111561279457612794612200565b6127a8816127a284546126fa565b84612734565b602080601f8311600181146127dd57600084156127c55750858301515b600019600386901b1c1916600185901b178555611c58565b600085815260208120601f198616915b8281101561280c578886015182559484019460019091019084016127ed565b508582101561282a5787850151600019600388901b60f8161c191681555b5050505050600190811b01905550565b85815284602082015260a06040820152600061285960a083018661210b565b828103606084015261286b818661210b565b9050828103608084015261287f818561210b565b98975050505050505050565b6000825161289d8184602087016120e7565b9190910192915050565b6000600182016128c757634e487b7160e01b600052601160045260246000fd5b5060010190565b600083516128e08184602088016120e7565b8351908301906128f48183602088016120e7565b01949350505050565b828152604060208201526000610daf604083018461210b565b6001600160a01b03858116825284166020820152604081018390526080606082018190526000906126bb9083018461210b565b60006020828403121561295b57600080fd5b8151611d7f816120b456fea2646970667358221220e86b2da6071d54f29931bd4537bdfa67ced1033b747ea8a12c34e1ceb8fb333364736f6c63430008140033","linkReferences":{}},"methodIdentifiers":{"_tokenIdCounter()":"84c4bd4b","addAdmin(address)":"70480275","admins(address)":"429b62e5","approve(address,uint256)":"095ea7b3","balanceOf(address)":"70a08231","buyLand(uint256)":"ced39558","deleteLand(uint256)":"fd9b2c8d","editLandInfo(uint256,uint256,string,string,string)":"5b6c9dad","getApproved(uint256)":"081812fc","getLand(uint256)":"f02dd53f","isApprovedForAll(address,address)":"e985e9c5","lands(uint256)":"e261f1e5","name()":"06fdde03","owner()":"8da5cb5b","ownerOf(uint256)":"6352211e","removeAdmin(address)":"1785f53c","renounceOwnership()":"715018a6","safeTransferFrom(address,address,uint256)":"42842e0e","safeTransferFrom(address,address,uint256,bytes)":"b88d4fde","setApprovalForAll(address,bool)":"a22cb465","supportsInterface(bytes4)":"01ffc9a7","symbol()":"95d89b41","tokenURI(uint256)":"c87b56dd","transferFrom(address,address,uint256)":"23b872dd","transferLandOwnership(uint256,address)":"c64ab4cf","transferOwnership(address)":"f2fde38b","updateLandSaleStatus(uint256,bool)":"b8f3f14d","uploadLand(string,string,string,string,uint256,string,string)":"8129f260","zoneCounters(string)":"fc6afbe3"},"id":53}