{"abi":[{"type":"constructor","inputs":[{"name":"initialOwner","type":"address","internalType":"address"}],"stateMutability":"nonpayable"},{"type":"function","name":"addAdmin","inputs":[{"name":"admin","type":"address","internalType":"address"}],"outputs":[],"stateMutability":"nonpayable"},{"type":"function","name":"admins","inputs":[{"name":"","type":"address","internalType":"address"}],"outputs":[{"name":"","type":"bool","internalType":"bool"}],"stateMutability":"view"},{"type":"function","name":"approve","inputs":[{"name":"to","type":"address","internalType":"address"},{"name":"tokenId","type":"uint256","internalType":"uint256"}],"outputs":[],"stateMutability":"nonpayable"},{"type":"function","name":"balanceOf","inputs":[{"name":"owner","type":"address","internalType":"address"}],"outputs":[{"name":"","type":"uint256","internalType":"uint256"}],"stateMutability":"view"},{"type":"function","name":"buyLand","inputs":[{"name":"tokenId","type":"uint256","internalType":"uint256"}],"outputs":[],"stateMutability":"payable"},{"type":"function","name":"deleteLand","inputs":[{"name":"tokenId","type":"uint256","internalType":"uint256"}],"outputs":[],"stateMutability":"nonpayable"},{"type":"function","name":"editLandInfo","inputs":[{"name":"tokenId","type":"uint256","internalType":"uint256"},{"name":"newPrice","type":"uint256","internalType":"uint256"},{"name":"newLocationName","type":"string","internalType":"string"},{"name":"newDescription","type":"string","internalType":"string"}],"outputs":[],"stateMutability":"nonpayable"},{"type":"function","name":"getApproved","inputs":[{"name":"tokenId","type":"uint256","internalType":"uint256"}],"outputs":[{"name":"","type":"address","internalType":"address"}],"stateMutability":"view"},{"type":"function","name":"getLand","inputs":[{"name":"_index","type":"uint256","internalType":"uint256"}],"outputs":[{"name":"","type":"tuple","internalType":"struct SkyMateNFT.Land","components":[{"name":"id","type":"uint256","internalType":"uint256"},{"name":"coordinates","type":"string","internalType":"string"},{"name":"locationName","type":"string","internalType":"string"},{"name":"description","type":"string","internalType":"string"},{"name":"price","type":"uint256","internalType":"uint256"},{"name":"onSale","type":"bool","internalType":"bool"},{"name":"zoneName","type":"string","internalType":"string"}]}],"stateMutability":"view"},{"type":"function","name":"isApprovedForAll","inputs":[{"name":"owner","type":"address","internalType":"address"},{"name":"operator","type":"address","internalType":"address"}],"outputs":[{"name":"","type":"bool","internalType":"bool"}],"stateMutability":"view"},{"type":"function","name":"lands","inputs":[{"name":"","type":"uint256","internalType":"uint256"}],"outputs":[{"name":"id","type":"uint256","internalType":"uint256"},{"name":"coordinates","type":"string","internalType":"string"},{"name":"locationName","type":"string","internalType":"string"},{"name":"description","type":"string","internalType":"string"},{"name":"price","type":"uint256","internalType":"uint256"},{"name":"onSale","type":"bool","internalType":"bool"},{"name":"zoneName","type":"string","internalType":"string"}],"stateMutability":"view"},{"type":"function","name":"name","inputs":[],"outputs":[{"name":"","type":"string","internalType":"string"}],"stateMutability":"view"},{"type":"function","name":"owner","inputs":[],"outputs":[{"name":"","type":"address","internalType":"address"}],"stateMutability":"view"},{"type":"function","name":"ownerOf","inputs":[{"name":"tokenId","type":"uint256","internalType":"uint256"}],"outputs":[{"name":"","type":"address","internalType":"address"}],"stateMutability":"view"},{"type":"function","name":"removeAdmin","inputs":[{"name":"admin","type":"address","internalType":"address"}],"outputs":[],"stateMutability":"nonpayable"},{"type":"function","name":"renounceOwnership","inputs":[],"outputs":[],"stateMutability":"nonpayable"},{"type":"function","name":"safeTransferFrom","inputs":[{"name":"from","type":"address","internalType":"address"},{"name":"to","type":"address","internalType":"address"},{"name":"tokenId","type":"uint256","internalType":"uint256"}],"outputs":[],"stateMutability":"nonpayable"},{"type":"function","name":"safeTransferFrom","inputs":[{"name":"from","type":"address","internalType":"address"},{"name":"to","type":"address","internalType":"address"},{"name":"tokenId","type":"uint256","internalType":"uint256"},{"name":"data","type":"bytes","internalType":"bytes"}],"outputs":[],"stateMutability":"nonpayable"},{"type":"function","name":"setApprovalForAll","inputs":[{"name":"operator","type":"address","internalType":"address"},{"name":"approved","type":"bool","internalType":"bool"}],"outputs":[],"stateMutability":"nonpayable"},{"type":"function","name":"supportsInterface","inputs":[{"name":"interfaceId","type":"bytes4","internalType":"bytes4"}],"outputs":[{"name":"","type":"bool","internalType":"bool"}],"stateMutability":"view"},{"type":"function","name":"symbol","inputs":[],"outputs":[{"name":"","type":"string","internalType":"string"}],"stateMutability":"view"},{"type":"function","name":"tokenURI","inputs":[{"name":"tokenId","type":"uint256","internalType":"uint256"}],"outputs":[{"name":"","type":"string","internalType":"string"}],"stateMutability":"view"},{"type":"function","name":"transferFrom","inputs":[{"name":"from","type":"address","internalType":"address"},{"name":"to","type":"address","internalType":"address"},{"name":"tokenId","type":"uint256","internalType":"uint256"}],"outputs":[],"stateMutability":"nonpayable"},{"type":"function","name":"transferLandOwnership","inputs":[{"name":"tokenId","type":"uint256","internalType":"uint256"},{"name":"newOwner","type":"address","internalType":"address"}],"outputs":[],"stateMutability":"nonpayable"},{"type":"function","name":"transferOwnership","inputs":[{"name":"newOwner","type":"address","internalType":"address"}],"outputs":[],"stateMutability":"nonpayable"},{"type":"function","name":"updateLandSaleStatus","inputs":[{"name":"tokenId","type":"uint256","internalType":"uint256"},{"name":"status","type":"bool","internalType":"bool"}],"outputs":[],"stateMutability":"nonpayable"},{"type":"function","name":"uploadLand","inputs":[{"name":"coordinates","type":"string","internalType":"string"},{"name":"locationName","type":"string","internalType":"string"},{"name":"description","type":"string","internalType":"string"},{"name":"zone","type":"string","internalType":"string"},{"name":"price","type":"uint256","internalType":"uint256"},{"name":"tokenURI","type":"string","internalType":"string"}],"outputs":[{"name":"","type":"uint256","internalType":"uint256"}],"stateMutability":"nonpayable"},{"type":"function","name":"zoneCounters","inputs":[{"name":"","type":"string","internalType":"string"}],"outputs":[{"name":"","type":"uint256","internalType":"uint256"}],"stateMutability":"view"},{"type":"event","name":"Approval","inputs":[{"name":"owner","type":"address","indexed":true,"internalType":"address"},{"name":"approved","type":"address","indexed":true,"internalType":"address"},{"name":"tokenId","type":"uint256","indexed":true,"internalType":"uint256"}],"anonymous":false},{"type":"event","name":"ApprovalForAll","inputs":[{"name":"owner","type":"address","indexed":true,"internalType":"address"},{"name":"operator","type":"address","indexed":true,"internalType":"address"},{"name":"approved","type":"bool","indexed":false,"internalType":"bool"}],"anonymous":false},{"type":"event","name":"BatchMetadataUpdate","inputs":[{"name":"_fromTokenId","type":"uint256","indexed":false,"internalType":"uint256"},{"name":"_toTokenId","type":"uint256","indexed":false,"internalType":"uint256"}],"anonymous":false},{"type":"event","name":"LandBought","inputs":[{"name":"tokenId","type":"uint256","indexed":false,"internalType":"uint256"},{"name":"buyer","type":"address","indexed":true,"internalType":"address"},{"name":"price","type":"uint256","indexed":false,"internalType":"uint256"}],"anonymous":false},{"type":"event","name":"LandInfoUpdated","inputs":[{"name":"tokenId","type":"uint256","indexed":false,"internalType":"uint256"},{"name":"price","type":"uint256","indexed":false,"internalType":"uint256"},{"name":"locationName","type":"string","indexed":false,"internalType":"string"},{"name":"description","type":"string","indexed":false,"internalType":"string"}],"anonymous":false},{"type":"event","name":"LandSaleStatusUpdated","inputs":[{"name":"tokenId","type":"uint256","indexed":false,"internalType":"uint256"},{"name":"status","type":"bool","indexed":false,"internalType":"bool"}],"anonymous":false},{"type":"event","name":"LandUploaded","inputs":[{"name":"tokenId","type":"uint256","indexed":false,"internalType":"uint256"},{"name":"admin","type":"address","indexed":true,"internalType":"address"},{"name":"coordinates","type":"string","indexed":false,"internalType":"string"}],"anonymous":false},{"type":"event","name":"MetadataUpdate","inputs":[{"name":"_tokenId","type":"uint256","indexed":false,"internalType":"uint256"}],"anonymous":false},{"type":"event","name":"OwnershipTransferred","inputs":[{"name":"previousOwner","type":"address","indexed":true,"internalType":"address"},{"name":"newOwner","type":"address","indexed":true,"internalType":"address"}],"anonymous":false},{"type":"event","name":"OwnershipTransferred","inputs":[{"name":"tokenId","type":"uint256","indexed":false,"internalType":"uint256"},{"name":"previousOwner","type":"address","indexed":true,"internalType":"address"},{"name":"newOwner","type":"address","indexed":true,"internalType":"address"}],"anonymous":false},{"type":"event","name":"Transfer","inputs":[{"name":"from","type":"address","indexed":true,"internalType":"address"},{"name":"to","type":"address","indexed":true,"internalType":"address"},{"name":"tokenId","type":"uint256","indexed":true,"internalType":"uint256"}],"anonymous":false},{"type":"error","name":"ERC721IncorrectOwner","inputs":[{"name":"sender","type":"address","internalType":"address"},{"name":"tokenId","type":"uint256","internalType":"uint256"},{"name":"owner","type":"address","internalType":"address"}]},{"type":"error","name":"ERC721InsufficientApproval","inputs":[{"name":"operator","type":"address","internalType":"address"},{"name":"tokenId","type":"uint256","internalType":"uint256"}]},{"type":"error","name":"ERC721InvalidApprover","inputs":[{"name":"approver","type":"address","internalType":"address"}]},{"type":"error","name":"ERC721InvalidOperator","inputs":[{"name":"operator","type":"address","internalType":"address"}]},{"type":"error","name":"ERC721InvalidOwner","inputs":[{"name":"owner","type":"address","internalType":"address"}]},{"type":"error","name":"ERC721InvalidReceiver","inputs":[{"name":"receiver","type":"address","internalType":"address"}]},{"type":"error","name":"ERC721InvalidSender","inputs":[{"name":"sender","type":"address","internalType":"address"}]},{"type":"error","name":"ERC721NonexistentToken","inputs":[{"name":"tokenId","type":"uint256","internalType":"uint256"}]},{"type":"error","name":"OwnableInvalidOwner","inputs":[{"name":"owner","type":"address","internalType":"address"}]},{"type":"error","name":"OwnableUnauthorizedAccount","inputs":[{"name":"account","type":"address","internalType":"address"}]},{"type":"error","name":"SkyMateNFT_FailedTransaction","inputs":[]},{"type":"error","name":"SkyMateNFT_InsufficientFunds","inputs":[]},{"type":"error","name":"SkyMateNFT_InvalidPrice","inputs":[]},{"type":"error","name":"SkyMateNFT_LandDoesNotExist","inputs":[]},{"type":"error","name":"SkyMateNFT_LandNotForSale","inputs":[]},{"type":"error","name":"SkyMateNFT_NotAuthorized","inputs":[]}],"bytecode":{"object":"0x60806040523480156200001157600080fd5b5060405162002a5c38038062002a5c833981016040819052620000349162000154565b806040518060400160405280600a81526020016914dade53585d1953919560b21b8152506040518060400160405280600581526020016414d353919560da1b81525081600090816200008791906200022b565b5060016200009682826200022b565b5050506001600160a01b038116620000c857604051631e4fbdf760e01b81526000600482015260240160405180910390fd5b620000d38162000102565b506001600160a01b03166000908152600a60205260409020805460ff19166001908117909155600855620002f7565b600780546001600160a01b038381166001600160a01b0319831681179093556040519116919082907f8be0079c531659141344cd1fd0a4f28419497f9722a3daafe3b4186f6b6457e090600090a35050565b6000602082840312156200016757600080fd5b81516001600160a01b03811681146200017f57600080fd5b9392505050565b634e487b7160e01b600052604160045260246000fd5b600181811c90821680620001b157607f821691505b602082108103620001d257634e487b7160e01b600052602260045260246000fd5b50919050565b601f8211156200022657600081815260208120601f850160051c81016020861015620002015750805b601f850160051c820191505b8181101562000222578281556001016200020d565b5050505b505050565b81516001600160401b0381111562000247576200024762000186565b6200025f816200025884546200019c565b84620001d8565b602080601f8311600181146200029757600084156200027e5750858301515b600019600386901b1c1916600185901b17855562000222565b600085815260208120601f198616915b82811015620002c857888601518255948401946001909101908401620002a7565b5085821015620002e75787850151600019600388901b60f8161c191681555b5050505050600190811b01905550565b61275580620003076000396000f3fe6080604052600436106101b75760003560e01c80638ee950b0116100ec578063ced395581161008a578063f02dd53f11610064578063f02dd53f146104f9578063f2fde38b14610526578063fc6afbe314610546578063fd9b2c8d1461057e57600080fd5b8063ced3955814610493578063e261f1e5146104a6578063e985e9c5146104d957600080fd5b8063b88d4fde116100c6578063b88d4fde14610413578063b8f3f14d14610433578063c64ab4cf14610453578063c87b56dd1461047357600080fd5b80638ee950b0146103be57806395d89b41146103de578063a22cb465146103f357600080fd5b8063429b62e51161015957806370a082311161013357806370a082311461033d578063715018a61461036b57806376981129146103805780638da5cb5b146103a057600080fd5b8063429b62e5146102cd5780636352211e146102fd578063704802751461031d57600080fd5b8063095ea7b311610195578063095ea7b31461024b5780631785f53c1461026d57806323b872dd1461028d57806342842e0e146102ad57600080fd5b806301ffc9a7146101bc57806306fdde03146101f1578063081812fc14610213575b600080fd5b3480156101c857600080fd5b506101dc6101d7366004611f25565b61059e565b60405190151581526020015b60405180910390f35b3480156101fd57600080fd5b506102066105c9565b6040516101e89190611f92565b34801561021f57600080fd5b5061023361022e366004611fa5565b61065b565b6040516001600160a01b0390911681526020016101e8565b34801561025757600080fd5b5061026b610266366004611fda565b610684565b005b34801561027957600080fd5b5061026b610288366004612004565b610693565b34801561029957600080fd5b5061026b6102a836600461201f565b6106bc565b3480156102b957600080fd5b5061026b6102c836600461201f565b61074c565b3480156102d957600080fd5b506101dc6102e8366004612004565b600a6020526000908152604090205460ff1681565b34801561030957600080fd5b50610233610318366004611fa5565b61076c565b34801561032957600080fd5b5061026b610338366004612004565b610777565b34801561034957600080fd5b5061035d610358366004612004565b6107a3565b6040519081526020016101e8565b34801561037757600080fd5b5061026b6107eb565b34801561038c57600080fd5b5061035d61039b366004612107565b6107ff565b3480156103ac57600080fd5b506007546001600160a01b0316610233565b3480156103ca57600080fd5b5061026b6103d93660046121e1565b610a15565b3480156103ea57600080fd5b50610206610aef565b3480156103ff57600080fd5b5061026b61040e366004612268565b610afe565b34801561041f57600080fd5b5061026b61042e36600461229b565b610b09565b34801561043f57600080fd5b5061026b61044e36600461230b565b610b21565b34801561045f57600080fd5b5061026b61046e36600461232e565b610bb4565b34801561047f57600080fd5b5061020661048e366004611fa5565b610c47565b61026b6104a1366004611fa5565b610d58565b3480156104b257600080fd5b506104c66104c1366004611fa5565b610ec5565b6040516101e89796959493929190612351565b3480156104e557600080fd5b506101dc6104f43660046123c0565b611128565b34801561050557600080fd5b50610519610514366004611fa5565b611156565b6040516101e891906123ea565b34801561053257600080fd5b5061026b610541366004612004565b61142c565b34801561055257600080fd5b5061035d610561366004612489565b8051602081830181018051600b8252928201919093012091525481565b34801561058a57600080fd5b5061026b610599366004611fa5565b61146a565b60006001600160e01b03198216632483248360e11b14806105c357506105c3826115ab565b92915050565b6060600080546105d8906124be565b80601f0160208091040260200160405190810160405280929190818152602001828054610604906124be565b80156106515780601f1061062657610100808354040283529160200191610651565b820191906000526020600020905b81548152906001019060200180831161063457829003601f168201915b5050505050905090565b6000610666826115fb565b506000828152600460205260409020546001600160a01b03166105c3565b61068f828233611634565b5050565b61069b611641565b6001600160a01b03166000908152600a60205260409020805460ff19169055565b6001600160a01b0382166106eb57604051633250574960e11b8152600060048201526024015b60405180910390fd5b60006106f883833361166e565b9050836001600160a01b0316816001600160a01b031614610746576040516364283d7b60e01b81526001600160a01b03808616600483015260248201849052821660448201526064016106e2565b50505050565b61076783838360405180602001604052806000815250610b09565b505050565b60006105c3826115fb565b61077f611641565b6001600160a01b03166000908152600a60205260409020805460ff19166001179055565b60006001600160a01b0382166107cf576040516322718ad960e21b8152600060048201526024016106e2565b506001600160a01b031660009081526003602052604090205490565b6107f3611641565b6107fd6000611767565b565b336000908152600a602052604081205460ff1661082f57604051635c04ba8f60e01b815260040160405180910390fd5b600083116108505760405163a123dc9d60e01b815260040160405180910390fd5b600854604051600b906108649087906124f8565b908152604051908190036020019020805490600061088183612514565b91905055506108a161089b6007546001600160a01b031690565b826117b9565b6108ab818461181e565b6000856108d5600b886040516108c191906124f8565b908152602001604051809103902054611867565b6040516020016108e692919061253b565b60408051601f1981840301815260e08301825284835260208381018d81528484018d9052606085018c9052608085018a9052600160a0860181905260c0860184905260008881526009909352939091208451815590519194509182019061094d90826125b0565b506040820151600282019061096290826125b0565b506060820151600382019061097790826125b0565b506080820151600482015560a082015160058201805460ff191691151591909117905560c082015160068201906109ae90826125b0565b505060088054915060006109c183612514565b9190505550336001600160a01b03167f61409a3abeb8a699b455b8900c15d4152b733139f8a4e1b9a0c6db7c8ba4f3ec838b604051610a01929190612670565b60405180910390a250979650505050505050565b6000610a208561076c565b9050336001600160a01b03821614610a4b57604051635c04ba8f60e01b815260040160405180910390fd5b60008411610a6c5760405163a123dc9d60e01b815260040160405180910390fd5b600085815260096020526040902060048101859055600201610a8e84826125b0565b506000858152600960205260409020600301610aaa83826125b0565b507fd5b7afe8fb003be9e5f33d8721899ccd800fa47f16d1288bd3bd1049cc089d4285858585604051610ae09493929190612689565b60405180910390a15050505050565b6060600180546105d8906124be565b61068f3383836118fa565b610b148484846106bc565b6107463385858585611991565b6000610b2c8361076c565b9050336001600160a01b03821614610b5757604051635c04ba8f60e01b815260040160405180910390fd5b600083815260096020908152604091829020600501805460ff19168515159081179091558251868152918201527f05e98fc4109d93af1378403b4988d8e6071e2acc457350996c6a141a73bbfa56910160405180910390a1505050565b6000610bbf8361076c565b9050336001600160a01b03821614610bea57604051635c04ba8f60e01b815260040160405180910390fd5b610bf5818385611abc565b816001600160a01b0316816001600160a01b03167f16b85f49bf01212961345d3016c9a531894accf62eb7680f2045d79185cc0ec085604051610c3a91815260200190565b60405180910390a3505050565b6060610c52826115fb565b5060008281526006602052604081208054610c6c906124be565b80601f0160208091040260200160405190810160405280929190818152602001828054610c98906124be565b8015610ce55780601f10610cba57610100808354040283529160200191610ce5565b820191906000526020600020905b815481529060010190602001808311610cc857829003601f168201915b505050505090506000610d0360408051602081019091526000815290565b90508051600003610d15575092915050565b815115610d47578082604051602001610d2f92919061253b565b60405160208183030381529060405292505050919050565b610d5084611b6c565b949350505050565b6000818152600960205260409020600581015460ff16610d8b5760405163216bac8d60e11b815260040160405180910390fd5b8054600003610dad5760405163d34d5c1360e01b815260040160405180910390fd5b8060040154341015610dd2576040516370af7d9760e11b815260040160405180910390fd5b6000610ddd8361076c565b60058301805460ff19169055600483015460405191925033916000916001600160a01b038516918381818185875af1925050503d8060008114610e3c576040519150601f19603f3d011682016040523d82523d6000602084013e610e41565b606091505b5050905080610e6357604051630da41a6d60e31b815260040160405180910390fd5b610e6e838387611abc565b816001600160a01b03167ff240bec15fb695f4a5d675ef66f2bf676a48b0068617c8718d7d6bbcc8adaf27868660040154604051610eb6929190918252602082015260400190565b60405180910390a25050505050565b60096020526000908152604090208054600182018054919291610ee7906124be565b80601f0160208091040260200160405190810160405280929190818152602001828054610f13906124be565b8015610f605780601f10610f3557610100808354040283529160200191610f60565b820191906000526020600020905b815481529060010190602001808311610f4357829003601f168201915b505050505090806002018054610f75906124be565b80601f0160208091040260200160405190810160405280929190818152602001828054610fa1906124be565b8015610fee5780601f10610fc357610100808354040283529160200191610fee565b820191906000526020600020905b815481529060010190602001808311610fd157829003601f168201915b505050505090806003018054611003906124be565b80601f016020809104026020016040519081016040528092919081815260200182805461102f906124be565b801561107c5780601f106110515761010080835404028352916020019161107c565b820191906000526020600020905b81548152906001019060200180831161105f57829003601f168201915b50505050600483015460058401546006850180549495929460ff9092169350906110a5906124be565b80601f01602080910402602001604051908101604052809291908181526020018280546110d1906124be565b801561111e5780601f106110f35761010080835404028352916020019161111e565b820191906000526020600020905b81548152906001019060200180831161110157829003601f168201915b5050505050905087565b6001600160a01b03918216600090815260056020908152604080832093909416825291909152205460ff1690565b6111986040518060e001604052806000815260200160608152602001606081526020016060815260200160008152602001600015158152602001606081525090565b600960008381526020019081526020016000206040518060e0016040529081600082015481526020016001820180546111d0906124be565b80601f01602080910402602001604051908101604052809291908181526020018280546111fc906124be565b80156112495780601f1061121e57610100808354040283529160200191611249565b820191906000526020600020905b81548152906001019060200180831161122c57829003601f168201915b50505050508152602001600282018054611262906124be565b80601f016020809104026020016040519081016040528092919081815260200182805461128e906124be565b80156112db5780601f106112b0576101008083540402835291602001916112db565b820191906000526020600020905b8154815290600101906020018083116112be57829003601f168201915b505050505081526020016003820180546112f4906124be565b80601f0160208091040260200160405190810160405280929190818152602001828054611320906124be565b801561136d5780601f106113425761010080835404028352916020019161136d565b820191906000526020600020905b81548152906001019060200180831161135057829003601f168201915b505050918352505060048201546020820152600582015460ff16151560408201526006820180546060909201916113a3906124be565b80601f01602080910402602001604051908101604052809291908181526020018280546113cf906124be565b801561141c5780601f106113f15761010080835404028352916020019161141c565b820191906000526020600020905b8154815290600101906020018083116113ff57829003601f168201915b5050505050815250509050919050565b611434611641565b6001600160a01b03811661145e57604051631e4fbdf760e01b8152600060048201526024016106e2565b61146781611767565b50565b611472611641565b600081815260096020526040812080549091036114a25760405163d34d5c1360e01b815260040160405180910390fd5b6007546001600160a01b03166114b78361076c565b6001600160a01b0316146114de57604051635c04ba8f60e01b815260040160405180910390fd5b6114e782611be1565b6000828152600960205260408120818155906115066001830182611ec1565b611514600283016000611ec1565b611522600383016000611ec1565b60006004830181905560058301805460ff19169055611545906006840190611ec1565b50507fd5b7afe8fb003be9e5f33d8721899ccd800fa47f16d1288bd3bd1049cc089d4282600060405161159f9291909182526020820152608060408201819052600090820181905260a06060830181905282015260c00190565b60405180910390a15050565b60006001600160e01b031982166380ac58cd60e01b14806115dc57506001600160e01b03198216635b5e139f60e01b145b806105c357506301ffc9a760e01b6001600160e01b03198316146105c3565b6000818152600260205260408120546001600160a01b0316806105c357604051637e27328960e01b8152600481018490526024016106e2565b6107678383836001611c1c565b6007546001600160a01b031633146107fd5760405163118cdaa760e01b81523360048201526024016106e2565b6000828152600260205260408120546001600160a01b039081169083161561169b5761169b818486611d22565b6001600160a01b038116156116d9576116b8600085600080611c1c565b6001600160a01b038116600090815260036020526040902080546000190190555b6001600160a01b03851615611708576001600160a01b0385166000908152600360205260409020805460010190555b60008481526002602052604080822080546001600160a01b0319166001600160a01b0389811691821790925591518793918516917fddf252ad1be2c89b69c2b068fc378daa952ba7f163c4a11628f55a4df523b3ef91a4949350505050565b600780546001600160a01b038381166001600160a01b0319831681179093556040519116919082907f8be0079c531659141344cd1fd0a4f28419497f9722a3daafe3b4186f6b6457e090600090a35050565b6001600160a01b0382166117e357604051633250574960e11b8152600060048201526024016106e2565b60006117f18383600061166e565b90506001600160a01b03811615610767576040516339e3563760e11b8152600060048201526024016106e2565b600082815260066020526040902061183682826125b0565b506040518281527ff8e1a15aba9398e019f0b49df1a4fde98ee17ae345cb5f6b5e2c27f5033e8ce79060200161159f565b6060600061187483611d86565b600101905060008167ffffffffffffffff8111156118945761189461205b565b6040519080825280601f01601f1916602001820160405280156118be576020820181803683370190505b5090508181016020015b600019016f181899199a1a9b1b9c1cb0b131b232b360811b600a86061a8153600a85049450846118c857509392505050565b6001600160a01b03821661192c57604051630b61174360e31b81526001600160a01b03831660048201526024016106e2565b6001600160a01b03838116600081815260056020908152604080832094871680845294825291829020805460ff191686151590811790915591519182527f17307eab39ab6107e8899845ad3d59bd9653f200f220920489ca2b5937696c319101610c3a565b6001600160a01b0383163b15611ab557604051630a85bd0160e11b81526001600160a01b0384169063150b7a02906119d39088908890879087906004016126c5565b6020604051808303816000875af1925050508015611a0e575060408051601f3d908101601f19168201909252611a0b91810190612702565b60015b611a77573d808015611a3c576040519150601f19603f3d011682016040523d82523d6000602084013e611a41565b606091505b508051600003611a6f57604051633250574960e11b81526001600160a01b03851660048201526024016106e2565b805181602001fd5b6001600160e01b03198116630a85bd0160e11b14611ab357604051633250574960e11b81526001600160a01b03851660048201526024016106e2565b505b5050505050565b6001600160a01b038216611ae657604051633250574960e11b8152600060048201526024016106e2565b6000611af48383600061166e565b90506001600160a01b038116611b2057604051637e27328960e01b8152600481018390526024016106e2565b836001600160a01b0316816001600160a01b031614610746576040516364283d7b60e01b81526001600160a01b03808616600483015260248201849052821660448201526064016106e2565b6060611b77826115fb565b506000611b8f60408051602081019091526000815290565b90506000815111611baf5760405180602001604052806000815250611bda565b80611bb984611867565b604051602001611bca92919061253b565b6040516020818303038152906040525b9392505050565b6000611bf0600083600061166e565b90506001600160a01b03811661068f57604051637e27328960e01b8152600481018390526024016106e2565b8080611c3057506001600160a01b03821615155b15611cf2576000611c40846115fb565b90506001600160a01b03831615801590611c6c5750826001600160a01b0316816001600160a01b031614155b8015611c7f5750611c7d8184611128565b155b15611ca85760405163a9fbf51f60e01b81526001600160a01b03841660048201526024016106e2565b8115611cf05783856001600160a01b0316826001600160a01b03167f8c5be1e5ebec7d5bd14f71427d1e84f3dd0314c0f7b2291e5b200ac8c7c3b92560405160405180910390a45b505b5050600090815260046020526040902080546001600160a01b0319166001600160a01b0392909216919091179055565b611d2d838383611e5e565b610767576001600160a01b038316611d5b57604051637e27328960e01b8152600481018290526024016106e2565b60405163177e802f60e01b81526001600160a01b0383166004820152602481018290526044016106e2565b60008072184f03e93ff9f4daa797ed6e38ed64bf6a1f0160401b8310611dc55772184f03e93ff9f4daa797ed6e38ed64bf6a1f0160401b830492506040015b6d04ee2d6d415b85acef81000000008310611df1576d04ee2d6d415b85acef8100000000830492506020015b662386f26fc100008310611e0f57662386f26fc10000830492506010015b6305f5e1008310611e27576305f5e100830492506008015b6127108310611e3b57612710830492506004015b60648310611e4d576064830492506002015b600a83106105c35760010192915050565b60006001600160a01b03831615801590610d505750826001600160a01b0316846001600160a01b03161480611e985750611e988484611128565b80610d505750506000908152600460205260409020546001600160a01b03908116911614919050565b508054611ecd906124be565b6000825580601f10611edd575050565b601f01602090049060005260206000209081019061146791905b80821115611f0b5760008155600101611ef7565b5090565b6001600160e01b03198116811461146757600080fd5b600060208284031215611f3757600080fd5b8135611bda81611f0f565b60005b83811015611f5d578181015183820152602001611f45565b50506000910152565b60008151808452611f7e816020860160208601611f42565b601f01601f19169290920160200192915050565b602081526000611bda6020830184611f66565b600060208284031215611fb757600080fd5b5035919050565b80356001600160a01b0381168114611fd557600080fd5b919050565b60008060408385031215611fed57600080fd5b611ff683611fbe565b946020939093013593505050565b60006020828403121561201657600080fd5b611bda82611fbe565b60008060006060848603121561203457600080fd5b61203d84611fbe565b925061204b60208501611fbe565b9150604084013590509250925092565b634e487b7160e01b600052604160045260246000fd5b600067ffffffffffffffff8084111561208c5761208c61205b565b604051601f8501601f19908116603f011681019082821181831017156120b4576120b461205b565b816040528093508581528686860111156120cd57600080fd5b858560208301376000602087830101525050509392505050565b600082601f8301126120f857600080fd5b611bda83833560208501612071565b60008060008060008060c0878903121561212057600080fd5b863567ffffffffffffffff8082111561213857600080fd5b6121448a838b016120e7565b9750602089013591508082111561215a57600080fd5b6121668a838b016120e7565b9650604089013591508082111561217c57600080fd5b6121888a838b016120e7565b9550606089013591508082111561219e57600080fd5b6121aa8a838b016120e7565b94506080890135935060a08901359150808211156121c757600080fd5b506121d489828a016120e7565b9150509295509295509295565b600080600080608085870312156121f757600080fd5b8435935060208501359250604085013567ffffffffffffffff8082111561221d57600080fd5b612229888389016120e7565b9350606087013591508082111561223f57600080fd5b5061224c878288016120e7565b91505092959194509250565b80358015158114611fd557600080fd5b6000806040838503121561227b57600080fd5b61228483611fbe565b915061229260208401612258565b90509250929050565b600080600080608085870312156122b157600080fd5b6122ba85611fbe565b93506122c860208601611fbe565b925060408501359150606085013567ffffffffffffffff8111156122eb57600080fd5b8501601f810187136122fc57600080fd5b61224c87823560208401612071565b6000806040838503121561231e57600080fd5b8235915061229260208401612258565b6000806040838503121561234157600080fd5b8235915061229260208401611fbe565b87815260e06020820152600061236a60e0830189611f66565b828103604084015261237c8189611f66565b905082810360608401526123908188611f66565b905085608084015284151560a084015282810360c08401526123b28185611f66565b9a9950505050505050505050565b600080604083850312156123d357600080fd5b6123dc83611fbe565b915061229260208401611fbe565b60208152815160208201526000602083015160e06040840152612411610100840182611f66565b90506040840151601f198085840301606086015261242f8383611f66565b9250606086015191508085840301608086015261244c8383611f66565b9250608086015160a086015260a0860151151560c086015260c08601519150808584030160e0860152506124808282611f66565b95945050505050565b60006020828403121561249b57600080fd5b813567ffffffffffffffff8111156124b257600080fd5b610d50848285016120e7565b600181811c908216806124d257607f821691505b6020821081036124f257634e487b7160e01b600052602260045260246000fd5b50919050565b6000825161250a818460208701611f42565b9190910192915050565b60006001820161253457634e487b7160e01b600052601160045260246000fd5b5060010190565b6000835161254d818460208801611f42565b835190830190612561818360208801611f42565b01949350505050565b601f82111561076757600081815260208120601f850160051c810160208610156125915750805b601f850160051c820191505b81811015611ab35782815560010161259d565b815167ffffffffffffffff8111156125ca576125ca61205b565b6125de816125d884546124be565b8461256a565b602080601f83116001811461261357600084156125fb5750858301515b600019600386901b1c1916600185901b178555611ab3565b600085815260208120601f198616915b8281101561264257888601518255948401946001909101908401612623565b50858210156126605787850151600019600388901b60f8161c191681555b5050505050600190811b01905550565b828152604060208201526000610d506040830184611f66565b8481528360208201526080604082015260006126a86080830185611f66565b82810360608401526126ba8185611f66565b979650505050505050565b6001600160a01b03858116825284166020820152604081018390526080606082018190526000906126f890830184611f66565b9695505050505050565b60006020828403121561271457600080fd5b8151611bda81611f0f56fea2646970667358221220d8e3de2e5e05482a4263337a598933ec10d1456bb326a49e5a10d5f23057154a64736f6c63430008140033","linkReferences":{}},"methodIdentifiers":{"addAdmin(address)":"70480275","admins(address)":"429b62e5","approve(address,uint256)":"095ea7b3","balanceOf(address)":"70a08231","buyLand(uint256)":"ced39558","deleteLand(uint256)":"fd9b2c8d","editLandInfo(uint256,uint256,string,string)":"8ee950b0","getApproved(uint256)":"081812fc","getLand(uint256)":"f02dd53f","isApprovedForAll(address,address)":"e985e9c5","lands(uint256)":"e261f1e5","name()":"06fdde03","owner()":"8da5cb5b","ownerOf(uint256)":"6352211e","removeAdmin(address)":"1785f53c","renounceOwnership()":"715018a6","safeTransferFrom(address,address,uint256)":"42842e0e","safeTransferFrom(address,address,uint256,bytes)":"b88d4fde","setApprovalForAll(address,bool)":"a22cb465","supportsInterface(bytes4)":"01ffc9a7","symbol()":"95d89b41","tokenURI(uint256)":"c87b56dd","transferFrom(address,address,uint256)":"23b872dd","transferLandOwnership(uint256,address)":"c64ab4cf","transferOwnership(address)":"f2fde38b","updateLandSaleStatus(uint256,bool)":"b8f3f14d","uploadLand(string,string,string,string,uint256,string)":"76981129","zoneCounters(string)":"fc6afbe3"},"id":54}